{
  "contractName": "SafeMath",
  "abi": [
    {
      "constant": true,
      "inputs": [
        {
          "name": "a",
          "type": "uint256"
        },
        {
          "name": "b",
          "type": "uint256"
        }
      ],
      "name": "safeAdd",
      "outputs": [
        {
          "name": "c",
          "type": "uint256"
        }
      ],
      "payable": false,
      "stateMutability": "pure",
      "type": "function"
    },
    {
      "constant": true,
      "inputs": [
        {
          "name": "a",
          "type": "uint256"
        },
        {
          "name": "b",
          "type": "uint256"
        }
      ],
      "name": "safeSub",
      "outputs": [
        {
          "name": "c",
          "type": "uint256"
        }
      ],
      "payable": false,
      "stateMutability": "pure",
      "type": "function"
    },
    {
      "constant": true,
      "inputs": [
        {
          "name": "a",
          "type": "uint256"
        },
        {
          "name": "b",
          "type": "uint256"
        }
      ],
      "name": "safeMul",
      "outputs": [
        {
          "name": "c",
          "type": "uint256"
        }
      ],
      "payable": false,
      "stateMutability": "pure",
      "type": "function"
    },
    {
      "constant": true,
      "inputs": [
        {
          "name": "a",
          "type": "uint256"
        },
        {
          "name": "b",
          "type": "uint256"
        }
      ],
      "name": "safeDiv",
      "outputs": [
        {
          "name": "c",
          "type": "uint256"
        }
      ],
      "payable": false,
      "stateMutability": "pure",
      "type": "function"
    }
  ],
  "bytecode": "0x6060604052341561000f57600080fd5b6102208061001e6000396000f300606060405260043610610062576000357c0100000000000000000000000000000000000000000000000000000000900463ffffffff168063a293d1e814610067578063b5931f7c146100a7578063d05c78da146100e7578063e6cb901314610127575b600080fd5b341561007257600080fd5b6100916004808035906020019091908035906020019091905050610167565b6040518082815260200191505060405180910390f35b34156100b257600080fd5b6100d16004808035906020019091908035906020019091905050610183565b6040518082815260200191505060405180910390f35b34156100f257600080fd5b61011160048080359060200190919080359060200190919050506101a7565b6040518082815260200191505060405180910390f35b341561013257600080fd5b61015160048080359060200190919080359060200190919050506101d8565b6040518082815260200191505060405180910390f35b600082821115151561017857600080fd5b818303905092915050565b6000808211151561019357600080fd5b818381151561019e57fe5b04905092915050565b6000818302905060008314806101c757508183828115156101c457fe5b04145b15156101d257600080fd5b92915050565b600081830190508281101515156101ee57600080fd5b929150505600a165627a7a7230582077d67f952747d06efb47b135bffbbe25fc0c4a462532b592d6364010fc63cbef0029",
  "source": "pragma solidity ^0.4.13;\n\n/*\n\nSmartShare\n\nThe First version of token distribution\n\nStill under development\n========================\n\n\nSpecial thanks to cintix\n\n*/\n\n// ERC20 Interface: https://github.com/ethereum/EIPs/issues/20\ncontract ERC20 {\n  function transfer(address _to, uint256 _value) returns (bool success);\n  function balanceOf(address _owner) constant returns (uint256 balance);\n}\n\n\n\n// ----------------------------------------------------------------------------\n// Safe maths\n// ----------------------------------------------------------------------------\ncontract SafeMath {\n    function safeAdd(uint a, uint b) public pure returns (uint c) {\n        c = a + b;\n        require(c >= a);\n    }\n    function safeSub(uint a, uint b) public pure returns (uint c) {\n        require(b <= a);\n        c = a - b;\n    }\n    function safeMul(uint a, uint b) public pure returns (uint c) {\n        c = a * b;\n        require(a == 0 || c / a == b);\n    }\n    function safeDiv(uint a, uint b) public pure returns (uint c) {\n        require(b > 0);\n        c = a / b;\n    }\n}\n\n\n\ncontract SmartShare is SafeMath {\n  // Store the amount of ETH deposited by each account.\n  mapping (address => uint256) public balances;\n\n  // Track whether the contract has sent funds yet.\n  bool public sent_funds;\n  // Track whether tokens are received\n  bool public received_tokens;\n  // Record ETH value of tokens currently held by contract.\n  uint256 public contract_eth_value;\n  // Emergency kill switch in case a critical bug is found.\n  bool public kill_switch;\n\n  // Enable normal deposit, highly suggest disable!\n  bool public allow_payable = false;\n  \n  // SHA3 hash of kill switch password.\n  bytes32 password_hash = 0x8223cba4d8b54dc1e03c41c059667f6adb1a642a0a07bef5a9d11c18c4f14612;\n  // Maximum amount of user ETH contract will accept.\n  uint256 public eth_cap = 0 ether;\n  // The developer address.\n  address public developer = 0x627306090abaB3A6e1400e9345bC60c78a8BEf57;\n  // The deployer address.\n  address public deployer = 0x627306090abaB3A6e1400e9345bC60c78a8BEf57;\n  // The crowdsale address.\n  address public sale;\n  // The token address.\n  ERC20 public token;\n  // The fee for developers, 3 means 0.3%\n  uint64 public dev_fee = 3;\n  // The fee for deployers\n  uint64 public fee;\n  // Define whether fees are charged in tokens or in ethereum\n  bool fee_in_tokens = false;\n\n  // Define whether whitelist is enabled\n  bool whitelist_enabled = false;\n  // Define the whitelist address that are allowed to participate\n  mapping (address => bool) public whitelist;\n\n  // The hidden sha3 for contract protection.\n  bytes32 public contract_checksum;\n  \n  // Allows the developer to set the crowdsale addresses.\n  function set_addresses(address _sale) {\n    // Only allow the developer to set the sale and token addresses.\n    require(msg.sender == deployer);\n    // Only allow setting the addresses once.\n    require(sale == 0x0);\n    // Set the crowdsale and token addresses.\n    sale = _sale;\n  }\n\n  function set_token_address(address _token) {\n      // Only allow the deployer to set the token address.\n      require(msg.sender == deployer);\n      token = ERC20(_token);\n  }\n\n  function set_fee(uint64 _fee) {\n      // Only allow the deployer to set the fee, and only once\n      require(msg.sender == deployer);\n      require(fee == 0);\n      fee = _fee;\n  }\n  \n  // Allows the deployer or anyone with the password to shut down everything except withdrawals in emergencies.\n  function activate_kill_switch(string password) {\n    // Only activate the kill switch if the sender is the developer or the password is correct.\n    require(msg.sender == deployer || sha3(password) == password_hash);\n    // Irreversibly activate the kill switch.\n    kill_switch = true;\n  }\n\n  // Set the cap for the token sale\n  function set_token_cap(uint256 _cap) {\n    // Only allow developers to set fees\n    require(msg.sender == deployer);\n    eth_cap = _cap;\n\n  }\n  \n  // Withdraws all ETH deposited or tokens purchased by the given user.\n  function withdraw_all(address user) {\n    // Only allow withdrawals after the tokens are distributed\n    require(sent_funds);\n    // Onlu allow deployer to activate\n    require(msg.sender == deployer);\n    // Only allow after the ERC20 Token is set.\n    // Short circuit to save gas if the user doesn't have a balance.\n    if (balances[user] == 0) \n    return;\n    // If the contract failed to buy into the sale, withdraw the user's ETH.\n    if (!received_tokens) {\n      // Store the user's balance prior to withdrawal in a temporary variable.\n      uint256 eth_to_withdraw = balances[user];\n      // Update the user's balance prior to sending ETH to prevent recursive call. (a function() with strange parameters )\n      balances[user] = 0;\n      // Return the user's funds.  Throws on failure to prevent loss of funds.\n      user.transfer(eth_to_withdraw);\n    } else {      // Withdraw the user's tokens if the contract has purchased them.\n      // Retrieve current token balance of contract.\n      uint256 contract_token_balance = token.balanceOf(address(this));\n      // Disallow token withdrawals if there are no tokens to withdraw.\n      require(contract_token_balance != 0);\n      // Store the user's token balance in a temporary variable.\n      uint256 tokens_to_withdraw = (balances[user] * contract_token_balance) / contract_eth_value;\n      // Update the value of tokens currently held by the contract.\n      contract_eth_value -= balances[user];\n      // Update the user's balance prior to sending to prevent recursive call.\n      balances[user] = 0;\n      uint256 fee_token = 0;\n      if(fee_in_tokens) {\n        // fee if contract successfully bought tokens.\n        fee_token = tokens_to_withdraw * fee / 1000;\n        // Send the fee to the deployer.\n        require(token.transfer(deployer, fee_token));\n      }\n      // Send the funds.  Throws on failure to prevent loss of funds.\n      require(token.transfer(user, tokens_to_withdraw - fee_token));\n    }\n  }\n    \n  // Send funds\n  function send_funds() {\n    // Short circuit to save gas if the contract has already bought tokens.\n    require(!sent_funds);\n    // Short circuit to save gas if kill switch is active.\n    if (kill_switch) \n    return;\n    // Disallow buying in if the developer hasn't set the sale address yet.\n    require(sale != 0x0);\n    // Record that the contract has bought the tokens.\n    sent_funds = true;\n    // Update bounty prior to sending to prevent recursive call.\n    uint256 dev_fee_eth = this.balance * dev_fee / 1000;\n    uint256 fee_eth = 0;\n    if (!fee_in_tokens) {\n      fee_eth = this.balance * fee / 1000;\n    }\n    // Record the amount of ETH sent as the contract's current value.\n    contract_eth_value = this.balance - fee_eth - dev_fee_eth;\n    // Transfer all the funds (less the bounties) to the crowdsale address\n    // to buy tokens.  Throws if the crowdsale hasn't started yet or has\n    // already completed, preventing loss of funds.\n    require(sale.call.value(contract_eth_value)());\n    if ( fee_eth != 0 ) {\n      deployer.transfer(fee_eth);\n    }\n    developer.transfer(dev_fee_eth);\n  }\n\n  function withdraw_eth(uint256 value) {\n    // Withdraw on user's request\n    // Withdraw will only work before funds are sent\n    require(!sent_funds);\n    // Require user withdraw less than request\n    require(balances[msg.sender]>=value);\n    // Update balance before sending to prevent recursive call\n    balances[msg.sender]=balances[msg.sender]-value;\n    // Send value back to user\n    msg.sender.transfer(value);\n  }\n  \n // Whitelist related features\n\n  function trigger_whitelist(bool _whitelist) {\n    require(msg.sender == deployer);\n    whitelist_enabled = _whitelist;\n  }\n\n  // Add address to Whitelist\n\n  function add_whitelist(address[] _address) {\n    require(msg.sender == deployer);\n    for (uint64 i = 0 ; i < _address.length ; i++) {\n      whitelist[_address[i]] = true;\n    }\n  }\n\n  // Deposit related functions\n  // Default function.  Called when a user sends ETH to the contract.\n  function () payable {\n    // Disallow if funds are sent\n    require(!sent_funds);\n    // Disallow deposits without hex by default.\n    require(allow_payable);\n    // Update balance\n    balances[msg.sender] += msg.value;\n  }\n\n  // deposit function.  Called when a user sends ETH to the contract.\n  function deposit() payable {\n    // Disallow if funds are sent\n    require(!sent_funds);\n    // Update balance\n    balances[msg.sender] += msg.value;\n  }\n\n  \n\n\n}",
  "sourcePath": "/Users/jiaminli/projects/SmartShare/contracts/main.sol",
  "compiler": {
    "name": "solc",
    "version": "0.4.19+commit.c4cbbb05.Emscripten.clang"
  },
  "schemaVersion": "2.0.0",
  "updatedAt": "2018-03-29T09:54:48.414Z"
}