{
  "contractName": "SmartShare",
  "abi": [
    {
      "constant": true,
      "inputs": [],
      "name": "contract_checksum",
      "outputs": [
        {
          "name": "",
          "type": "bytes32"
        }
      ],
      "payable": false,
      "stateMutability": "view",
      "type": "function"
    },
    {
      "constant": true,
      "inputs": [
        {
          "name": "",
          "type": "address"
        }
      ],
      "name": "balances",
      "outputs": [
        {
          "name": "",
          "type": "uint256"
        }
      ],
      "payable": false,
      "stateMutability": "view",
      "type": "function"
    },
    {
      "constant": true,
      "inputs": [
        {
          "name": "",
          "type": "address"
        }
      ],
      "name": "withdrawn_tokens",
      "outputs": [
        {
          "name": "",
          "type": "uint256"
        }
      ],
      "payable": false,
      "stateMutability": "view",
      "type": "function"
    },
    {
      "constant": true,
      "inputs": [],
      "name": "received_tokens",
      "outputs": [
        {
          "name": "",
          "type": "bool"
        }
      ],
      "payable": false,
      "stateMutability": "view",
      "type": "function"
    },
    {
      "constant": true,
      "inputs": [],
      "name": "ind_max_cap",
      "outputs": [
        {
          "name": "",
          "type": "uint256"
        }
      ],
      "payable": false,
      "stateMutability": "view",
      "type": "function"
    },
    {
      "constant": true,
      "inputs": [],
      "name": "sale",
      "outputs": [
        {
          "name": "",
          "type": "address"
        }
      ],
      "payable": false,
      "stateMutability": "view",
      "type": "function"
    },
    {
      "constant": true,
      "inputs": [],
      "name": "ind_min_cap",
      "outputs": [
        {
          "name": "",
          "type": "uint256"
        }
      ],
      "payable": false,
      "stateMutability": "view",
      "type": "function"
    },
    {
      "constant": true,
      "inputs": [],
      "name": "whitelist_enabled",
      "outputs": [
        {
          "name": "",
          "type": "bool"
        }
      ],
      "payable": false,
      "stateMutability": "view",
      "type": "function"
    },
    {
      "constant": true,
      "inputs": [
        {
          "name": "",
          "type": "address"
        }
      ],
      "name": "whitelist",
      "outputs": [
        {
          "name": "",
          "type": "bool"
        }
      ],
      "payable": false,
      "stateMutability": "view",
      "type": "function"
    },
    {
      "constant": true,
      "inputs": [],
      "name": "kill_switch",
      "outputs": [
        {
          "name": "",
          "type": "bool"
        }
      ],
      "payable": false,
      "stateMutability": "view",
      "type": "function"
    },
    {
      "constant": true,
      "inputs": [],
      "name": "sent_funds",
      "outputs": [
        {
          "name": "",
          "type": "bool"
        }
      ],
      "payable": false,
      "stateMutability": "view",
      "type": "function"
    },
    {
      "constant": true,
      "inputs": [],
      "name": "allow_payable",
      "outputs": [
        {
          "name": "",
          "type": "bool"
        }
      ],
      "payable": false,
      "stateMutability": "view",
      "type": "function"
    },
    {
      "constant": true,
      "inputs": [],
      "name": "contract_eth_value",
      "outputs": [
        {
          "name": "",
          "type": "uint256"
        }
      ],
      "payable": false,
      "stateMutability": "view",
      "type": "function"
    },
    {
      "constant": true,
      "inputs": [],
      "name": "dev_fee",
      "outputs": [
        {
          "name": "",
          "type": "uint64"
        }
      ],
      "payable": false,
      "stateMutability": "view",
      "type": "function"
    },
    {
      "constant": true,
      "inputs": [],
      "name": "developer",
      "outputs": [
        {
          "name": "",
          "type": "address"
        }
      ],
      "payable": false,
      "stateMutability": "view",
      "type": "function"
    },
    {
      "constant": true,
      "inputs": [],
      "name": "deployer",
      "outputs": [
        {
          "name": "",
          "type": "address"
        }
      ],
      "payable": false,
      "stateMutability": "view",
      "type": "function"
    },
    {
      "constant": true,
      "inputs": [],
      "name": "fee_in_tokens",
      "outputs": [
        {
          "name": "",
          "type": "bool"
        }
      ],
      "payable": false,
      "stateMutability": "view",
      "type": "function"
    },
    {
      "constant": true,
      "inputs": [],
      "name": "eth_cap",
      "outputs": [
        {
          "name": "",
          "type": "uint256"
        }
      ],
      "payable": false,
      "stateMutability": "view",
      "type": "function"
    },
    {
      "constant": true,
      "inputs": [],
      "name": "fee",
      "outputs": [
        {
          "name": "",
          "type": "uint64"
        }
      ],
      "payable": false,
      "stateMutability": "view",
      "type": "function"
    },
    {
      "constant": true,
      "inputs": [],
      "name": "token",
      "outputs": [
        {
          "name": "",
          "type": "address"
        }
      ],
      "payable": false,
      "stateMutability": "view",
      "type": "function"
    },
    {
      "payable": true,
      "stateMutability": "payable",
      "type": "fallback"
    },
    {
      "anonymous": false,
      "inputs": [
        {
          "indexed": false,
          "name": "_from",
          "type": "address"
        },
        {
          "indexed": false,
          "name": "_value",
          "type": "uint256"
        }
      ],
      "name": "DepositEther",
      "type": "event"
    },
    {
      "anonymous": false,
      "inputs": [
        {
          "indexed": false,
          "name": "_from",
          "type": "address"
        },
        {
          "indexed": false,
          "name": "_value",
          "type": "uint256"
        }
      ],
      "name": "WithdrawEther",
      "type": "event"
    },
    {
      "anonymous": false,
      "inputs": [
        {
          "indexed": false,
          "name": "_from",
          "type": "address"
        },
        {
          "indexed": false,
          "name": "_dest_addr",
          "type": "address"
        }
      ],
      "name": "SetDestAddress",
      "type": "event"
    },
    {
      "anonymous": false,
      "inputs": [
        {
          "indexed": false,
          "name": "_from",
          "type": "address"
        },
        {
          "indexed": false,
          "name": "_token_addr",
          "type": "address"
        }
      ],
      "name": "SetTokenAddress",
      "type": "event"
    },
    {
      "anonymous": false,
      "inputs": [
        {
          "indexed": false,
          "name": "_dest",
          "type": "address"
        },
        {
          "indexed": false,
          "name": "_amount",
          "type": "uint256"
        }
      ],
      "name": "FundsSent",
      "type": "event"
    },
    {
      "constant": false,
      "inputs": [
        {
          "name": "_sale",
          "type": "address"
        }
      ],
      "name": "set_addresses",
      "outputs": [],
      "payable": false,
      "stateMutability": "nonpayable",
      "type": "function"
    },
    {
      "constant": false,
      "inputs": [
        {
          "name": "_token",
          "type": "address"
        }
      ],
      "name": "set_token_address",
      "outputs": [],
      "payable": false,
      "stateMutability": "nonpayable",
      "type": "function"
    },
    {
      "constant": false,
      "inputs": [
        {
          "name": "_fee",
          "type": "uint64"
        }
      ],
      "name": "set_fee",
      "outputs": [],
      "payable": false,
      "stateMutability": "nonpayable",
      "type": "function"
    },
    {
      "constant": false,
      "inputs": [
        {
          "name": "_min_cap",
          "type": "uint64"
        },
        {
          "name": "_max_cap",
          "type": "uint64"
        }
      ],
      "name": "set_min_max_cap",
      "outputs": [],
      "payable": false,
      "stateMutability": "nonpayable",
      "type": "function"
    },
    {
      "constant": false,
      "inputs": [
        {
          "name": "password",
          "type": "string"
        }
      ],
      "name": "activate_kill_switch",
      "outputs": [],
      "payable": false,
      "stateMutability": "nonpayable",
      "type": "function"
    },
    {
      "constant": false,
      "inputs": [
        {
          "name": "_cap",
          "type": "uint256"
        }
      ],
      "name": "set_token_cap",
      "outputs": [],
      "payable": false,
      "stateMutability": "nonpayable",
      "type": "function"
    },
    {
      "constant": false,
      "inputs": [
        {
          "name": "user",
          "type": "address"
        }
      ],
      "name": "withdraw_all",
      "outputs": [],
      "payable": false,
      "stateMutability": "nonpayable",
      "type": "function"
    },
    {
      "constant": false,
      "inputs": [],
      "name": "send_funds",
      "outputs": [],
      "payable": false,
      "stateMutability": "nonpayable",
      "type": "function"
    },
    {
      "constant": false,
      "inputs": [
        {
          "name": "value",
          "type": "uint256"
        }
      ],
      "name": "withdraw_eth",
      "outputs": [],
      "payable": false,
      "stateMutability": "nonpayable",
      "type": "function"
    },
    {
      "constant": false,
      "inputs": [
        {
          "name": "_whitelist",
          "type": "bool"
        }
      ],
      "name": "trigger_whitelist",
      "outputs": [],
      "payable": false,
      "stateMutability": "nonpayable",
      "type": "function"
    },
    {
      "constant": false,
      "inputs": [
        {
          "name": "_address",
          "type": "address[]"
        }
      ],
      "name": "add_whitelist",
      "outputs": [],
      "payable": false,
      "stateMutability": "nonpayable",
      "type": "function"
    },
    {
      "constant": false,
      "inputs": [],
      "name": "deposit",
      "outputs": [],
      "payable": true,
      "stateMutability": "payable",
      "type": "function"
    }
  ],
  "bytecode": "0x60606040526000600560016101000a81548160ff021916908315150217905550600060065573627306090abab3a6e1400e9345bc60c78a8bef57600760006101000a81548173ffffffffffffffffffffffffffffffffffffffff021916908373ffffffffffffffffffffffffffffffffffffffff16021790555073627306090abab3a6e1400e9345bc60c78a8bef57600860006101000a81548173ffffffffffffffffffffffffffffffffffffffff021916908373ffffffffffffffffffffffffffffffffffffffff1602179055506003600a60146101000a81548167ffffffffffffffff021916908367ffffffffffffffff1602179055506000600b60086101000a81548160ff0219169083151502179055506000600b60096101000a81548160ff021916908315150217905550341561013957600080fd5b611fdb806101486000396000f300606060405260043610610195576000357c0100000000000000000000000000000000000000000000000000000000900463ffffffff168062f03538146103645780630a126bdd1461039157806314643314146103c25780631ad6506b1461041c57806327e235e31461043157806330a95e671461047e5780633ee78221146104a157806342263aa2146104ee5780635fcf92ef146105275780636242c8bb146105545780636ad1fe021461057d5780636f304bc7146105d257806371ca0ab3146105f557806388a9f803146106355780638a7441a11461066e5780638a8b7e02146106975780639b19251a146106c4578063a089feea14610715578063a4280bbd14610742578063bbb6ef2d1461076f578063c42bb1e41461079c578063c6403ac5146107c5578063ca4b208b14610802578063d0e30db014610857578063d4701c3514610861578063d5f39488146108be578063d65de17114610913578063dbfeb17f14610940578063ddca3f4314610969578063f0847f01146109a6578063f1116796146109cb578063fc0c546a14610a04575b600360009054906101000a900460ff161515156101b157600080fd5b600560019054906101000a900460ff1615156101cc57600080fd5b6000600c5414151561022a57600c54346000803373ffffffffffffffffffffffffffffffffffffffff1673ffffffffffffffffffffffffffffffffffffffff16815260200190815260200160002054011115151561022957600080fd5b5b600d54346000803373ffffffffffffffffffffffffffffffffffffffff1673ffffffffffffffffffffffffffffffffffffffff16815260200190815260200160002054011015151561027b57600080fd5b34600454016006541015151561029057600080fd5b346000803373ffffffffffffffffffffffffffffffffffffffff1673ffffffffffffffffffffffffffffffffffffffff168152602001908152602001600020600082825401925050819055506102f134600454610a5990919063ffffffff16565b6004819055507fe628a607143b255f52afd0900e0d9630dd009c2f2635cd1e28c7aeeeff9408023334604051808373ffffffffffffffffffffffffffffffffffffffff1673ffffffffffffffffffffffffffffffffffffffff1681526020018281526020019250505060405180910390a1005b341561036f57600080fd5b61038f600480803567ffffffffffffffff16906020019091905050610a75565b005b341561039c57600080fd5b6103a4610b2c565b60405180826000191660001916815260200191505060405180910390f35b34156103cd57600080fd5b61041a600480803590602001908201803590602001908080602002602001604051908101604052809392919081815260200183836020028082843782019150505050505091905050610b32565b005b341561042757600080fd5b61042f610c32565b005b341561043c57600080fd5b610468600480803573ffffffffffffffffffffffffffffffffffffffff16906020019091905050610f8d565b6040518082815260200191505060405180910390f35b341561048957600080fd5b61049f6004808035906020019091905050610fa5565b005b34156104ac57600080fd5b6104d8600480803573ffffffffffffffffffffffffffffffffffffffff1690602001909190505061113f565b6040518082815260200191505060405180910390f35b34156104f957600080fd5b610525600480803573ffffffffffffffffffffffffffffffffffffffff16906020019091905050611157565b005b341561053257600080fd5b61053a61128e565b604051808215151515815260200191505060405180910390f35b341561055f57600080fd5b6105676112a1565b6040518082815260200191505060405180910390f35b341561058857600080fd5b6105906112a7565b604051808273ffffffffffffffffffffffffffffffffffffffff1673ffffffffffffffffffffffffffffffffffffffff16815260200191505060405180910390f35b34156105dd57600080fd5b6105f360048080359060200190919050506112cd565b005b341561060057600080fd5b610633600480803567ffffffffffffffff1690602001909190803567ffffffffffffffff16906020019091905050611333565b005b341561064057600080fd5b61066c600480803573ffffffffffffffffffffffffffffffffffffffff169060200190919050506113b5565b005b341561067957600080fd5b6106816119ec565b6040518082815260200191505060405180910390f35b34156106a257600080fd5b6106aa6119f2565b604051808215151515815260200191505060405180910390f35b34156106cf57600080fd5b6106fb600480803573ffffffffffffffffffffffffffffffffffffffff16906020019091905050611a05565b604051808215151515815260200191505060405180910390f35b341561072057600080fd5b610728611a25565b604051808215151515815260200191505060405180910390f35b341561074d57600080fd5b610755611a38565b604051808215151515815260200191505060405180910390f35b341561077a57600080fd5b610782611a4b565b604051808215151515815260200191505060405180910390f35b34156107a757600080fd5b6107af611a5e565b6040518082815260200191505060405180910390f35b34156107d057600080fd5b6107d8611a64565b604051808267ffffffffffffffff1667ffffffffffffffff16815260200191505060405180910390f35b341561080d57600080fd5b610815611a7e565b604051808273ffffffffffffffffffffffffffffffffffffffff1673ffffffffffffffffffffffffffffffffffffffff16815260200191505060405180910390f35b61085f611aa4565b005b341561086c57600080fd5b6108bc600480803590602001908201803590602001908080601f01602080910402602001604051908101604052809392919081815260200183838082843782019150505050505091905050611c58565b005b34156108c957600080fd5b6108d1611cd2565b604051808273ffffffffffffffffffffffffffffffffffffffff1673ffffffffffffffffffffffffffffffffffffffff16815260200191505060405180910390f35b341561091e57600080fd5b610926611cf8565b604051808215151515815260200191505060405180910390f35b341561094b57600080fd5b610953611d0b565b6040518082815260200191505060405180910390f35b341561097457600080fd5b61097c611d11565b604051808267ffffffffffffffff1667ffffffffffffffff16815260200191505060405180910390f35b34156109b157600080fd5b6109c960048080351515906020019091905050611d2b565b005b34156109d657600080fd5b610a02600480803573ffffffffffffffffffffffffffffffffffffffff16906020019091905050611da4565b005b3415610a0f57600080fd5b610a17611f22565b604051808273ffffffffffffffffffffffffffffffffffffffff1673ffffffffffffffffffffffffffffffffffffffff16815260200191505060405180910390f35b60008183019050828110151515610a6c57fe5b80905092915050565b600860009054906101000a900473ffffffffffffffffffffffffffffffffffffffff1673ffffffffffffffffffffffffffffffffffffffff163373ffffffffffffffffffffffffffffffffffffffff16141515610ad157600080fd5b6000600b60009054906101000a900467ffffffffffffffff1667ffffffffffffffff16141515610b0057600080fd5b80600b60006101000a81548167ffffffffffffffff021916908367ffffffffffffffff16021790555050565b600f5481565b6000600860009054906101000a900473ffffffffffffffffffffffffffffffffffffffff1673ffffffffffffffffffffffffffffffffffffffff163373ffffffffffffffffffffffffffffffffffffffff16141515610b9057600080fd5b600090505b81518167ffffffffffffffff161015610c2e576001600e6000848467ffffffffffffffff16815181101515610bc657fe5b9060200190602002015173ffffffffffffffffffffffffffffffffffffffff1673ffffffffffffffffffffffffffffffffffffffff16815260200190815260200160002060006101000a81548160ff0219169083151502179055508080600101915050610b95565b5050565b600080600360009054906101000a900460ff16151515610c5157600080fd5b600560009054906101000a900460ff1615610c6b57610f89565b6000600960009054906101000a900473ffffffffffffffffffffffffffffffffffffffff1673ffffffffffffffffffffffffffffffffffffffff1614151515610cb357600080fd5b6001600360006101000a81548160ff021916908315150217905550610d2c6103e8610d1e600a60149054906101000a900467ffffffffffffffff1667ffffffffffffffff163073ffffffffffffffffffffffffffffffffffffffff1631611f4890919063ffffffff16565b611f8090919063ffffffff16565b915060009050600b60089054906101000a900460ff161515610da957610da66103e8610d98600a60149054906101000a900467ffffffffffffffff1667ffffffffffffffff163073ffffffffffffffffffffffffffffffffffffffff1631611f4890919063ffffffff16565b611f8090919063ffffffff16565b90505b81813073ffffffffffffffffffffffffffffffffffffffff16310303600481905550600960009054906101000a900473ffffffffffffffffffffffffffffffffffffffff1673ffffffffffffffffffffffffffffffffffffffff1660045460405160006040518083038185876187965a03f1925050501515610e2a57600080fd5b600081141515610e9757600860009054906101000a900473ffffffffffffffffffffffffffffffffffffffff1673ffffffffffffffffffffffffffffffffffffffff166108fc829081150290604051600060405180830381858888f193505050501515610e9657600080fd5b5b600760009054906101000a900473ffffffffffffffffffffffffffffffffffffffff1673ffffffffffffffffffffffffffffffffffffffff166108fc839081150290604051600060405180830381858888f193505050501515610ef957600080fd5b7f8c8f77105ce8ee99e391fd4da140bc14a988eb4cf878b240bfed9b10ae7c6758600960009054906101000a900473ffffffffffffffffffffffffffffffffffffffff16600454604051808373ffffffffffffffffffffffffffffffffffffffff1673ffffffffffffffffffffffffffffffffffffffff1681526020018281526020019250505060405180910390a15b5050565b60006020528060005260406000206000915090505481565b600360009054906101000a900460ff16151515610fc157600080fd5b806000803373ffffffffffffffffffffffffffffffffffffffff1673ffffffffffffffffffffffffffffffffffffffff168152602001908152602001600020541015151561100e57600080fd5b806000803373ffffffffffffffffffffffffffffffffffffffff1673ffffffffffffffffffffffffffffffffffffffff16815260200190815260200160002054036000803373ffffffffffffffffffffffffffffffffffffffff1673ffffffffffffffffffffffffffffffffffffffff168152602001908152602001600020819055503373ffffffffffffffffffffffffffffffffffffffff166108fc829081150290604051600060405180830381858888f1935050505015156110d157600080fd5b7fdb35132c111efe920cede025e819975671cfd1b8fcc1174762c8670c4e94c2113382604051808373ffffffffffffffffffffffffffffffffffffffff1673ffffffffffffffffffffffffffffffffffffffff1681526020018281526020019250505060405180910390a150565b60016020528060005260406000206000915090505481565b600860009054906101000a900473ffffffffffffffffffffffffffffffffffffffff1673ffffffffffffffffffffffffffffffffffffffff163373ffffffffffffffffffffffffffffffffffffffff161415156111b357600080fd5b80600a60006101000a81548173ffffffffffffffffffffffffffffffffffffffff021916908373ffffffffffffffffffffffffffffffffffffffff1602179055507f1afd2fbd87820e90f7fd536cc3da7004a6a6d7f06da7f35b995b505b1ccf6f003382604051808373ffffffffffffffffffffffffffffffffffffffff1673ffffffffffffffffffffffffffffffffffffffff1681526020018273ffffffffffffffffffffffffffffffffffffffff1673ffffffffffffffffffffffffffffffffffffffff1681526020019250505060405180910390a150565b600360019054906101000a900460ff1681565b600c5481565b600960009054906101000a900473ffffffffffffffffffffffffffffffffffffffff1681565b600860009054906101000a900473ffffffffffffffffffffffffffffffffffffffff1673ffffffffffffffffffffffffffffffffffffffff163373ffffffffffffffffffffffffffffffffffffffff1614151561132957600080fd5b8060068190555050565b600860009054906101000a900473ffffffffffffffffffffffffffffffffffffffff1673ffffffffffffffffffffffffffffffffffffffff163373ffffffffffffffffffffffffffffffffffffffff1614151561138f57600080fd5b8167ffffffffffffffff16600d819055508067ffffffffffffffff16600c819055505050565b6000806000806000600360009054906101000a900460ff1615156113d857600080fd5b600860009054906101000a900473ffffffffffffffffffffffffffffffffffffffff1673ffffffffffffffffffffffffffffffffffffffff163373ffffffffffffffffffffffffffffffffffffffff1614151561143457600080fd5b60008060008873ffffffffffffffffffffffffffffffffffffffff1673ffffffffffffffffffffffffffffffffffffffff168152602001908152602001600020541415611480576119e4565b600360019054906101000a900460ff161515611560576000808773ffffffffffffffffffffffffffffffffffffffff1673ffffffffffffffffffffffffffffffffffffffff16815260200190815260200160002054945060008060008873ffffffffffffffffffffffffffffffffffffffff1673ffffffffffffffffffffffffffffffffffffffff168152602001908152602001600020819055508573ffffffffffffffffffffffffffffffffffffffff166108fc869081150290604051600060405180830381858888f19350505050151561155b57600080fd5b6119e3565b600a60009054906101000a900473ffffffffffffffffffffffffffffffffffffffff1673ffffffffffffffffffffffffffffffffffffffff166370a08231306000604051602001526040518263ffffffff167c0100000000000000000000000000000000000000000000000000000000028152600401808273ffffffffffffffffffffffffffffffffffffffff1673ffffffffffffffffffffffffffffffffffffffff168152602001915050602060405180830381600087803b151561162557600080fd5b6102c65a03f1151561163657600080fd5b5050506040518051905093506000841415151561165257600080fd5b6116cb6004546116bd6000808a73ffffffffffffffffffffffffffffffffffffffff1673ffffffffffffffffffffffffffffffffffffffff168152602001908152602001600020546116af60025489610a5990919063ffffffff16565b611f4890919063ffffffff16565b611f8090919063ffffffff16565b925061171f600160008873ffffffffffffffffffffffffffffffffffffffff1673ffffffffffffffffffffffffffffffffffffffff1681526020019081526020016000205484611f9690919063ffffffff16565b915060008060008873ffffffffffffffffffffffffffffffffffffffff1673ffffffffffffffffffffffffffffffffffffffff1681526020019081526020016000208190555060009050600b60089054906101000a900460ff16156118dd576117c56103e86117b7600b60009054906101000a900467ffffffffffffffff1667ffffffffffffffff1685611f4890919063ffffffff16565b611f8090919063ffffffff16565b9050600a60009054906101000a900473ffffffffffffffffffffffffffffffffffffffff1673ffffffffffffffffffffffffffffffffffffffff1663a9059cbb600860009054906101000a900473ffffffffffffffffffffffffffffffffffffffff16836000604051602001526040518363ffffffff167c0100000000000000000000000000000000000000000000000000000000028152600401808373ffffffffffffffffffffffffffffffffffffffff1673ffffffffffffffffffffffffffffffffffffffff16815260200182815260200192505050602060405180830381600087803b15156118b657600080fd5b6102c65a03f115156118c757600080fd5b5050506040518051905015156118dc57600080fd5b5b600a60009054906101000a900473ffffffffffffffffffffffffffffffffffffffff1673ffffffffffffffffffffffffffffffffffffffff1663a9059cbb8761192f8486611f9690919063ffffffff16565b6000604051602001526040518363ffffffff167c0100000000000000000000000000000000000000000000000000000000028152600401808373ffffffffffffffffffffffffffffffffffffffff1673ffffffffffffffffffffffffffffffffffffffff16815260200182815260200192505050602060405180830381600087803b15156119bc57600080fd5b6102c65a03f115156119cd57600080fd5b5050506040518051905015156119e257600080fd5b5b5b505050505050565b600d5481565b600b60099054906101000a900460ff1681565b600e6020528060005260406000206000915054906101000a900460ff1681565b600560009054906101000a900460ff1681565b600360009054906101000a900460ff1681565b600560019054906101000a900460ff1681565b60045481565b600a60149054906101000a900467ffffffffffffffff1681565b600760009054906101000a900473ffffffffffffffffffffffffffffffffffffffff1681565b600360009054906101000a900460ff16151515611ac057600080fd5b6000600c54141515611b1e57600c54346000803373ffffffffffffffffffffffffffffffffffffffff1673ffffffffffffffffffffffffffffffffffffffff168152602001908152602001600020540111151515611b1d57600080fd5b5b600d54346000803373ffffffffffffffffffffffffffffffffffffffff1673ffffffffffffffffffffffffffffffffffffffff168152602001908152602001600020540110151515611b6f57600080fd5b346004540160065410151515611b8457600080fd5b346000803373ffffffffffffffffffffffffffffffffffffffff1673ffffffffffffffffffffffffffffffffffffffff16815260200190815260200160002060008282540192505081905550611be534600454610a5990919063ffffffff16565b6004819055507fe628a607143b255f52afd0900e0d9630dd009c2f2635cd1e28c7aeeeff9408023334604051808373ffffffffffffffffffffffffffffffffffffffff1673ffffffffffffffffffffffffffffffffffffffff1681526020018281526020019250505060405180910390a1565b600860009054906101000a900473ffffffffffffffffffffffffffffffffffffffff1673ffffffffffffffffffffffffffffffffffffffff163373ffffffffffffffffffffffffffffffffffffffff16141515611cb457600080fd5b6001600560006101000a81548160ff02191690831515021790555050565b600860009054906101000a900473ffffffffffffffffffffffffffffffffffffffff1681565b600b60089054906101000a900460ff1681565b60065481565b600b60009054906101000a900467ffffffffffffffff1681565b600860009054906101000a900473ffffffffffffffffffffffffffffffffffffffff1673ffffffffffffffffffffffffffffffffffffffff163373ffffffffffffffffffffffffffffffffffffffff16141515611d8757600080fd5b80600b60096101000a81548160ff02191690831515021790555050565b600860009054906101000a900473ffffffffffffffffffffffffffffffffffffffff1673ffffffffffffffffffffffffffffffffffffffff163373ffffffffffffffffffffffffffffffffffffffff16141515611e0057600080fd5b6000600960009054906101000a900473ffffffffffffffffffffffffffffffffffffffff1673ffffffffffffffffffffffffffffffffffffffff16141515611e4757600080fd5b80600960006101000a81548173ffffffffffffffffffffffffffffffffffffffff021916908373ffffffffffffffffffffffffffffffffffffffff1602179055507fc3f42064c77ba2eba4535dc91b7c8fb2cca37ad6fde3c014534cc53cecd37f553382604051808373ffffffffffffffffffffffffffffffffffffffff1673ffffffffffffffffffffffffffffffffffffffff1681526020018273ffffffffffffffffffffffffffffffffffffffff1673ffffffffffffffffffffffffffffffffffffffff1681526020019250505060405180910390a150565b600a60009054906101000a900473ffffffffffffffffffffffffffffffffffffffff1681565b600080831415611f5b5760009050611f7a565b8183029050818382811515611f6c57fe5b04141515611f7657fe5b8090505b92915050565b60008183811515611f8d57fe5b04905092915050565b6000828211151515611fa457fe5b8183039050929150505600a165627a7a723058204f6e4e1a8946483f83ad0bd2aa6e4d4ca5e8b031d41902902e765b586491681c0029",
  "source": "pragma solidity ^0.4.13;\n\n/*\n\nSmartShare\n\nThe First version of token distribution\n\nStill under development\n========================\n\nCurrent feature list:\n\n1. Fund Raising\n2. Token Distribution\n3. Fee Raising\n4. Fee paid by tokens\n5. Whitelist\n\nTODO:\n\nThe implementation of the multiple times token distribution\n\nFor example:\n\n1. 100 Tokens\n50 User1 50 User2\nthen 100 more tokens\nit should be 50 User1 and 50 User2\n\nNeed further testing before proceeding.\n\nIndividual Cap\n\n\nSpecial thanks to cintix\n\n*/\n\n// ERC20 Interface: https://github.com/ethereum/EIPs/issues/20\ncontract ERC20 {\n  function transfer(address _to, uint256 _value) returns (bool success);\n  function balanceOf(address _owner) constant returns (uint256 balance);\n}\n\n\n\n/**\n * @title SafeMath\n * @dev Math operations with safety checks that throw on error\n */\nlibrary SafeMath {\n\n  /**\n  * @dev Multiplies two numbers, throws on overflow.\n  */\n  function mul(uint256 a, uint256 b) internal pure returns (uint256 c) {\n    if (a == 0) {\n      return 0;\n    }\n    c = a * b;\n    assert(c / a == b);\n    return c;\n  }\n\n  /**\n  * @dev Integer division of two numbers, truncating the quotient.\n  */\n  function div(uint256 a, uint256 b) internal pure returns (uint256) {\n    // assert(b > 0); // Solidity automatically throws when dividing by 0\n    // uint256 c = a / b;\n    // assert(a == b * c + a % b); // There is no case in which this doesn't hold\n    return a / b;\n  }\n\n  /**\n  * @dev Subtracts two numbers, throws on overflow (i.e. if subtrahend is greater than minuend).\n  */\n  function sub(uint256 a, uint256 b) internal pure returns (uint256) {\n    assert(b <= a);\n    return a - b;\n  }\n\n  /**\n  * @dev Adds two numbers, throws on overflow.\n  */\n  function add(uint256 a, uint256 b) internal pure returns (uint256 c) {\n    c = a + b;\n    assert(c >= a);\n    return c;\n  }\n}\n\n\n\ncontract SmartShare {\n  // Store the amount of ETH deposited by each account.\n  mapping (address => uint256) public balances;\n\n  mapping (address => uint256) public withdrawn_tokens;\n  using SafeMath for uint256;\n  // Store the withdrawn token balance\n  uint256 withdrawn_token_balances;\n\n\n  // Track whether the contract has sent funds yet.\n  bool public sent_funds;\n  // Track whether tokens are received\n  bool public received_tokens;\n  // Record ETH value of tokens currently held by contract.\n  uint256 public contract_eth_value;\n  // Emergency kill switch in case a critical bug is found.\n  bool public kill_switch;\n\n  // Enable normal deposit, highly suggest disable!\n  bool public allow_payable = false;\n    // Maximum amount of user ETH contract will accept.\n  uint256 public eth_cap = 0 ether;\n  // The developer address.\n  address public developer = 0x627306090abaB3A6e1400e9345bC60c78a8BEf57;\n  // The deployer address.\n  address public deployer = 0x627306090abaB3A6e1400e9345bC60c78a8BEf57;\n  // The crowdsale address.\n  address public sale;\n  // The token address.\n  ERC20 public token;\n  // The fee for developers, 3 means 0.3%\n  uint64 public dev_fee = 3;\n  // The fee for deployers\n  uint64 public fee;\n  // Define whether fees are charged in tokens or in ethereum\n  bool public fee_in_tokens = false;\n\n  // Define whether whitelist is enabled\n  bool public whitelist_enabled = false;\n  // Define the max and min cap for each user.\n  uint256 public ind_max_cap;\n  uint256 public ind_min_cap;\n  // Define the whitelist address that are allowed to participate\n  mapping (address => bool) public whitelist;\n\n  // The hidden sha3 for contract protection.\n  bytes32 public contract_checksum;\n\n  // Events for web3.js & Debugging\n  event DepositEther(address _from, uint256 _value);\n  event WithdrawEther(address _from, uint256 _value);\n  event SetDestAddress(address _from, address _dest_addr);\n  event SetTokenAddress(address _from, address _token_addr);\n  event FundsSent(address _dest, uint256 _amount);\n  \n  \n  // Allows the developer to set the crowdsale addresses.\n  function set_addresses(address _sale) public {\n    // Only allow the developer to set the sale and token addresses.\n    require(msg.sender == deployer);\n    // Only allow setting the addresses once.\n    require(sale == 0x0);\n    // Set the crowdsale and token addresses.\n    sale = _sale;\n    SetDestAddress(msg.sender, _sale);\n  }\n\n  function set_token_address(address _token) public {\n      // Only allow the deployer to set the token address.\n      require(msg.sender == deployer);\n      token = ERC20(_token);\n      SetTokenAddress(msg.sender, _token);\n  }\n\n  function set_fee(uint64 _fee) public {\n      // Only allow the deployer to set the fee, and only once\n      require(msg.sender == deployer);\n      require(fee == 0);\n      fee = _fee;\n  }\n\n  function set_min_max_cap(uint64 _min_cap, uint64 _max_cap) public {\n    // Only allow the deployer to change the min and max cap\n    require(msg.sender == deployer);\n    ind_min_cap = _min_cap;\n    ind_max_cap = _max_cap;\n  }\n  \n  // Allows the deployer or anyone with the password to shut down everything except withdrawals in emergencies.\n  function activate_kill_switch(string password) public {\n    // Only activate the kill switch if the sender is the developer or the password is correct.\n    require(msg.sender == deployer);\n    // Irreversibly activate the kill switch.\n    kill_switch = true;\n  }\n\n  // Set the cap for the token sale\n  function set_token_cap(uint256 _cap) public {\n    // Only allow developers to set fees\n    require(msg.sender == deployer);\n    eth_cap = _cap;\n\n  }\n  \n  // The token withdraw mechanizm\n\n\n\n  // Withdraws all ETH deposited or tokens purchased by the given user.\n  function withdraw_all(address user) public {\n    // Only allow withdrawals after the tokens are distributed\n    require(sent_funds);\n    // Onlu allow deployer to activate\n    require(msg.sender == deployer);\n    // Only allow after the ERC20 Token is set.\n    // Short circuit to save gas if the user doesn't have a balance.\n    if (balances[user] == 0) \n    return;\n    // If the contract failed to buy into the sale, withdraw the user's ETH.\n    if (!received_tokens) {\n      // Store the user's balance prior to withdrawal in a temporary variable.\n      uint256 eth_to_withdraw = balances[user];\n      // Update the user's balance prior to sending ETH to prevent recursive call. (a function() with strange parameters )\n      balances[user] = 0;\n      // Return the user's funds.  Throws on failure to prevent loss of funds.\n      user.transfer(eth_to_withdraw);\n    } else {      // Withdraw the user's tokens if the contract has purchased them.\n      // Retrieve current token balance of contract.\n      uint256 contract_token_balance = token.balanceOf(address(this));\n      // Disallow token withdrawals if there are no tokens to withdraw.\n      require(contract_token_balance != 0);\n      // Store the user's token balance in a temporary variable.\n      uint256 tokens_per_contribution = contract_token_balance.add(withdrawn_token_balances).mul(balances[user]).div(contract_eth_value);\n      uint256 tokens_to_withdraw = tokens_per_contribution.sub(withdrawn_tokens[user]);\n      // Update the value of tokens currently held by the contract.\n      // contract_eth_value -= balances[user];\n      // Update the user's balance prior to sending to prevent recursive call.\n      balances[user] = 0;\n      uint256 fee_token = 0;\n      if(fee_in_tokens) {\n        // fee if contract successfully bought tokens.\n        fee_token = tokens_to_withdraw.mul(fee).div(1000);\n        // Send the fee to the deployer.\n        require(token.transfer(deployer, fee_token));\n      }\n      // Send the funds.  Throws on failure to prevent loss of funds.\n      require(token.transfer(user, tokens_to_withdraw.sub(fee_token)));\n      // TOKENS ARE NOT DEDUCTED YET\n\n    }\n  }\n\n\n    \n  // Send funds\n  function send_funds() public {\n    // Short circuit to save gas if the contract has already bought tokens.\n    require(!sent_funds);\n    // Short circuit to save gas if kill switch is active.\n    if (kill_switch) \n    return;\n    // Disallow buying in if the developer hasn't set the sale address yet.\n    require(sale != 0x0);\n    // Record that the contract has bought the tokens.\n    sent_funds = true;\n    // Update bounty prior to sending to prevent recursive call.\n    uint256 dev_fee_eth = this.balance.mul(dev_fee).div(1000);\n    uint256 fee_eth = 0;\n    if (!fee_in_tokens) {\n      fee_eth = this.balance.mul(dev_fee).div(1000);\n    }\n    // Record the amount of ETH sent as the contract's current value.\n    contract_eth_value = this.balance - fee_eth - dev_fee_eth;\n    // Transfer all the funds (less the bounties) to the crowdsale address\n    // to buy tokens.  Throws if the crowdsale hasn't started yet or has\n    // already completed, preventing loss of funds.\n    require(sale.call.value(contract_eth_value)());\n    if ( fee_eth != 0 ) {\n      deployer.transfer(fee_eth);\n    }\n    developer.transfer(dev_fee_eth);\n    FundsSent(sale,contract_eth_value);\n  }\n\n  function withdraw_eth (uint256 value) public {\n    // Withdraw on user's request\n    // Withdraw will only work before funds are sent\n    require(!sent_funds);\n    // Require user withdraw less than request\n    require(balances[msg.sender]>=value);\n    // Update balance before sending to prevent recursive call\n    balances[msg.sender] = balances[msg.sender] - value;\n    // Send value back to user\n    msg.sender.transfer(value);\n    WithdrawEther(msg.sender, value);\n  }\n  \n // Whitelist related features\n\n   function trigger_whitelist(bool _whitelist) public {\n    require(msg.sender == deployer);\n    whitelist_enabled = _whitelist;\n  }\n\n  // Add address to Whitelist\n\n  function add_whitelist(address[] _address) public {\n    require(msg.sender == deployer);\n    for (uint64 i = 0 ; i < _address.length ; i++) {\n      whitelist[_address[i]] = true;\n    }\n  }\n\n  // Deposit related functions\n  // Default function.  Called when a user sends ETH to the contract.\n  function () payable public {\n    // Disallow if funds are sent\n    require(!sent_funds);\n    // Disallow deposits without hex by default.\n    require(allow_payable);\n    // Update balance\n    if(ind_max_cap != 0) {\n     require(balances[msg.sender]+msg.value <= ind_max_cap); \n    }\n    require(balances[msg.sender]+msg.value >= ind_min_cap);\n    require(eth_cap>=(contract_eth_value+msg.value));\n    balances[msg.sender] += msg.value;\n    contract_eth_value = contract_eth_value.add(msg.value);\n    DepositEther(msg.sender, msg.value);\n  }\n\n  // deposit function.  Called when a user sends ETH to the contract.\n  function deposit() public payable {\n    // Disallow if funds are sent\n    require(!sent_funds);\n    // Update balance\n    if(ind_max_cap != 0) {\n     require(balances[msg.sender]+msg.value <= ind_max_cap); \n    }\n    require(balances[msg.sender]+msg.value >= ind_min_cap);\n    require(eth_cap>=(contract_eth_value+msg.value));\n    balances[msg.sender] += msg.value;\n    contract_eth_value = contract_eth_value.add(msg.value);\n    DepositEther(msg.sender, msg.value);\n  }\n\n}",
  "sourcePath": "/Users/jiaminli/projects/SmartShare/contracts/main.sol",
  "compiler": {
    "name": "solc",
    "version": "0.4.19+commit.c4cbbb05.Emscripten.clang"
  },
  "schemaVersion": "2.0.0",
  "updatedAt": "2018-04-23T08:30:36.105Z"
}