{
  "contractName": "SmartShare",
  "abi": [
    {
      "constant": true,
      "inputs": [],
      "name": "contract_checksum",
      "outputs": [
        {
          "name": "",
          "type": "bytes32"
        }
      ],
      "payable": false,
      "stateMutability": "view",
      "type": "function"
    },
    {
      "constant": true,
      "inputs": [
        {
          "name": "",
          "type": "address"
        }
      ],
      "name": "balances",
      "outputs": [
        {
          "name": "",
          "type": "uint256"
        }
      ],
      "payable": false,
      "stateMutability": "view",
      "type": "function"
    },
    {
      "constant": true,
      "inputs": [],
      "name": "received_tokens",
      "outputs": [
        {
          "name": "",
          "type": "bool"
        }
      ],
      "payable": false,
      "stateMutability": "view",
      "type": "function"
    },
    {
      "constant": true,
      "inputs": [],
      "name": "sale",
      "outputs": [
        {
          "name": "",
          "type": "address"
        }
      ],
      "payable": false,
      "stateMutability": "view",
      "type": "function"
    },
    {
      "constant": true,
      "inputs": [],
      "name": "kill_switch",
      "outputs": [
        {
          "name": "",
          "type": "bool"
        }
      ],
      "payable": false,
      "stateMutability": "view",
      "type": "function"
    },
    {
      "constant": true,
      "inputs": [
        {
          "name": "a",
          "type": "uint256"
        },
        {
          "name": "b",
          "type": "uint256"
        }
      ],
      "name": "safeSub",
      "outputs": [
        {
          "name": "c",
          "type": "uint256"
        }
      ],
      "payable": false,
      "stateMutability": "pure",
      "type": "function"
    },
    {
      "constant": true,
      "inputs": [],
      "name": "sent_funds",
      "outputs": [
        {
          "name": "",
          "type": "bool"
        }
      ],
      "payable": false,
      "stateMutability": "view",
      "type": "function"
    },
    {
      "constant": true,
      "inputs": [
        {
          "name": "a",
          "type": "uint256"
        },
        {
          "name": "b",
          "type": "uint256"
        }
      ],
      "name": "safeDiv",
      "outputs": [
        {
          "name": "c",
          "type": "uint256"
        }
      ],
      "payable": false,
      "stateMutability": "pure",
      "type": "function"
    },
    {
      "constant": true,
      "inputs": [],
      "name": "allow_payable",
      "outputs": [
        {
          "name": "",
          "type": "bool"
        }
      ],
      "payable": false,
      "stateMutability": "view",
      "type": "function"
    },
    {
      "constant": true,
      "inputs": [],
      "name": "contract_eth_value",
      "outputs": [
        {
          "name": "",
          "type": "uint256"
        }
      ],
      "payable": false,
      "stateMutability": "view",
      "type": "function"
    },
    {
      "constant": true,
      "inputs": [],
      "name": "dev_fee",
      "outputs": [
        {
          "name": "",
          "type": "uint64"
        }
      ],
      "payable": false,
      "stateMutability": "view",
      "type": "function"
    },
    {
      "constant": true,
      "inputs": [],
      "name": "developer",
      "outputs": [
        {
          "name": "",
          "type": "address"
        }
      ],
      "payable": false,
      "stateMutability": "view",
      "type": "function"
    },
    {
      "constant": true,
      "inputs": [
        {
          "name": "a",
          "type": "uint256"
        },
        {
          "name": "b",
          "type": "uint256"
        }
      ],
      "name": "safeMul",
      "outputs": [
        {
          "name": "c",
          "type": "uint256"
        }
      ],
      "payable": false,
      "stateMutability": "pure",
      "type": "function"
    },
    {
      "constant": true,
      "inputs": [],
      "name": "deployer",
      "outputs": [
        {
          "name": "",
          "type": "address"
        }
      ],
      "payable": false,
      "stateMutability": "view",
      "type": "function"
    },
    {
      "constant": true,
      "inputs": [],
      "name": "eth_cap",
      "outputs": [
        {
          "name": "",
          "type": "uint256"
        }
      ],
      "payable": false,
      "stateMutability": "view",
      "type": "function"
    },
    {
      "constant": true,
      "inputs": [],
      "name": "fee",
      "outputs": [
        {
          "name": "",
          "type": "uint64"
        }
      ],
      "payable": false,
      "stateMutability": "view",
      "type": "function"
    },
    {
      "constant": true,
      "inputs": [
        {
          "name": "a",
          "type": "uint256"
        },
        {
          "name": "b",
          "type": "uint256"
        }
      ],
      "name": "safeAdd",
      "outputs": [
        {
          "name": "c",
          "type": "uint256"
        }
      ],
      "payable": false,
      "stateMutability": "pure",
      "type": "function"
    },
    {
      "constant": true,
      "inputs": [],
      "name": "token",
      "outputs": [
        {
          "name": "",
          "type": "address"
        }
      ],
      "payable": false,
      "stateMutability": "view",
      "type": "function"
    },
    {
      "payable": true,
      "stateMutability": "payable",
      "type": "fallback"
    },
    {
      "constant": false,
      "inputs": [
        {
          "name": "_sale",
          "type": "address"
        }
      ],
      "name": "set_addresses",
      "outputs": [],
      "payable": false,
      "stateMutability": "nonpayable",
      "type": "function"
    },
    {
      "constant": false,
      "inputs": [
        {
          "name": "_token",
          "type": "address"
        }
      ],
      "name": "set_token_address",
      "outputs": [],
      "payable": false,
      "stateMutability": "nonpayable",
      "type": "function"
    },
    {
      "constant": false,
      "inputs": [
        {
          "name": "_fee",
          "type": "uint64"
        }
      ],
      "name": "set_fee",
      "outputs": [],
      "payable": false,
      "stateMutability": "nonpayable",
      "type": "function"
    },
    {
      "constant": false,
      "inputs": [
        {
          "name": "password",
          "type": "string"
        }
      ],
      "name": "activate_kill_switch",
      "outputs": [],
      "payable": false,
      "stateMutability": "nonpayable",
      "type": "function"
    },
    {
      "constant": false,
      "inputs": [
        {
          "name": "user",
          "type": "address"
        }
      ],
      "name": "withdraw_all",
      "outputs": [],
      "payable": false,
      "stateMutability": "nonpayable",
      "type": "function"
    },
    {
      "constant": false,
      "inputs": [],
      "name": "send_funds",
      "outputs": [],
      "payable": false,
      "stateMutability": "nonpayable",
      "type": "function"
    },
    {
      "constant": false,
      "inputs": [
        {
          "name": "value",
          "type": "uint256"
        }
      ],
      "name": "withdraw_eth",
      "outputs": [],
      "payable": false,
      "stateMutability": "nonpayable",
      "type": "function"
    }
  ],
  "bytecode": "0x60606040526000600360016101000a81548160ff0219169083151502179055507f8223cba4d8b54dc1e03c41c059667f6adb1a642a0a07bef5a9d11c18c4f14612600102600490600019169055600060055573627306090abab3a6e1400e9345bc60c78a8bef57600660006101000a81548173ffffffffffffffffffffffffffffffffffffffff021916908373ffffffffffffffffffffffffffffffffffffffff16021790555073627306090abab3a6e1400e9345bc60c78a8bef57600760006101000a81548173ffffffffffffffffffffffffffffffffffffffff021916908373ffffffffffffffffffffffffffffffffffffffff1602179055506003600960146101000a81548167ffffffffffffffff021916908367ffffffffffffffff1602179055506000600a60086101000a81548160ff021916908315150217905550341561014b57600080fd5b61165b8061015a6000396000f300606060405260043610610148576000357c0100000000000000000000000000000000000000000000000000000000900463ffffffff168062f03538146101cd5780630a126bdd146101fa5780631ad6506b1461022b57806327e235e31461024057806330a95e671461028d57806342263aa2146102b05780635fcf92ef146102e95780636ad1fe021461031657806388a9f8031461036b578063a089feea146103a4578063a293d1e8146103d1578063a4280bbd14610411578063b5931f7c1461043e578063bbb6ef2d1461047e578063c42bb1e4146104ab578063c6403ac5146104d4578063ca4b208b14610511578063d05c78da14610566578063d4701c35146105a6578063d5f3948814610603578063dbfeb17f14610658578063ddca3f4314610681578063e6cb9013146106be578063f1116796146106fe578063fc0c546a14610737575b600160009054906101000a900460ff1615151561016457600080fd5b600360019054906101000a900460ff16151561017f57600080fd5b346000803373ffffffffffffffffffffffffffffffffffffffff1673ffffffffffffffffffffffffffffffffffffffff16815260200190815260200160002060008282540192505081905550005b34156101d857600080fd5b6101f8600480803567ffffffffffffffff1690602001909190505061078c565b005b341561020557600080fd5b61020d610843565b60405180826000191660001916815260200191505060405180910390f35b341561023657600080fd5b61023e610849565b005b341561024b57600080fd5b610277600480803573ffffffffffffffffffffffffffffffffffffffff16906020019091905050610ae6565b6040518082815260200191505060405180910390f35b341561029857600080fd5b6102ae6004808035906020019091905050610afe565b005b34156102bb57600080fd5b6102e7600480803573ffffffffffffffffffffffffffffffffffffffff16906020019091905050610c2d565b005b34156102f457600080fd5b6102fc610ccd565b604051808215151515815260200191505060405180910390f35b341561032157600080fd5b610329610cdf565b604051808273ffffffffffffffffffffffffffffffffffffffff1673ffffffffffffffffffffffffffffffffffffffff16815260200191505060405180910390f35b341561037657600080fd5b6103a2600480803573ffffffffffffffffffffffffffffffffffffffff16906020019091905050610d05565b005b34156103af57600080fd5b6103b76112e0565b604051808215151515815260200191505060405180910390f35b34156103dc57600080fd5b6103fb60048080359060200190919080359060200190919050506112f3565b6040518082815260200191505060405180910390f35b341561041c57600080fd5b61042461130f565b604051808215151515815260200191505060405180910390f35b341561044957600080fd5b6104686004808035906020019091908035906020019091905050611322565b6040518082815260200191505060405180910390f35b341561048957600080fd5b610491611346565b604051808215151515815260200191505060405180910390f35b34156104b657600080fd5b6104be611359565b6040518082815260200191505060405180910390f35b34156104df57600080fd5b6104e761135f565b604051808267ffffffffffffffff1667ffffffffffffffff16815260200191505060405180910390f35b341561051c57600080fd5b610524611379565b604051808273ffffffffffffffffffffffffffffffffffffffff1673ffffffffffffffffffffffffffffffffffffffff16815260200191505060405180910390f35b341561057157600080fd5b610590600480803590602001909190803590602001909190505061139f565b6040518082815260200191505060405180910390f35b34156105b157600080fd5b610601600480803590602001908201803590602001908080601f016020809104026020016040519081016040528093929190818152602001838380828437820191505050505050919050506113d0565b005b341561060e57600080fd5b6106166114c0565b604051808273ffffffffffffffffffffffffffffffffffffffff1673ffffffffffffffffffffffffffffffffffffffff16815260200191505060405180910390f35b341561066357600080fd5b61066b6114e6565b6040518082815260200191505060405180910390f35b341561068c57600080fd5b6106946114ec565b604051808267ffffffffffffffff1667ffffffffffffffff16815260200191505060405180910390f35b34156106c957600080fd5b6106e86004808035906020019091908035906020019091905050611506565b6040518082815260200191505060405180910390f35b341561070957600080fd5b610735600480803573ffffffffffffffffffffffffffffffffffffffff16906020019091905050611522565b005b341561074257600080fd5b61074a611609565b604051808273ffffffffffffffffffffffffffffffffffffffff1673ffffffffffffffffffffffffffffffffffffffff16815260200191505060405180910390f35b600760009054906101000a900473ffffffffffffffffffffffffffffffffffffffff1673ffffffffffffffffffffffffffffffffffffffff163373ffffffffffffffffffffffffffffffffffffffff161415156107e857600080fd5b6000600a60009054906101000a900467ffffffffffffffff1667ffffffffffffffff1614151561081757600080fd5b80600a60006101000a81548167ffffffffffffffff021916908367ffffffffffffffff16021790555050565b600b5481565b600080600160009054906101000a900460ff1615151561086857600080fd5b600360009054906101000a900460ff161561088257610ae2565b6000600860009054906101000a900473ffffffffffffffffffffffffffffffffffffffff1673ffffffffffffffffffffffffffffffffffffffff16141515156108ca57600080fd5b60018060006101000a81548160ff0219169083151502179055506103e8600960149054906101000a900467ffffffffffffffff1667ffffffffffffffff163073ffffffffffffffffffffffffffffffffffffffff16310281151561092a57fe5b04915060009050600a60089054906101000a900460ff161515610991576103e8600a60009054906101000a900467ffffffffffffffff1667ffffffffffffffff163073ffffffffffffffffffffffffffffffffffffffff16310281151561098d57fe5b0490505b81813073ffffffffffffffffffffffffffffffffffffffff16310303600281905550600860009054906101000a900473ffffffffffffffffffffffffffffffffffffffff1673ffffffffffffffffffffffffffffffffffffffff1660025460405160006040518083038185876187965a03f1925050501515610a1257600080fd5b600081141515610a7f57600760009054906101000a900473ffffffffffffffffffffffffffffffffffffffff1673ffffffffffffffffffffffffffffffffffffffff166108fc829081150290604051600060405180830381858888f193505050501515610a7e57600080fd5b5b600660009054906101000a900473ffffffffffffffffffffffffffffffffffffffff1673ffffffffffffffffffffffffffffffffffffffff166108fc839081150290604051600060405180830381858888f193505050501515610ae157600080fd5b5b5050565b60006020528060005260406000206000915090505481565b600160009054906101000a900460ff16151515610b1a57600080fd5b806000803373ffffffffffffffffffffffffffffffffffffffff1673ffffffffffffffffffffffffffffffffffffffff1681526020019081526020016000205410151515610b6757600080fd5b806000803373ffffffffffffffffffffffffffffffffffffffff1673ffffffffffffffffffffffffffffffffffffffff16815260200190815260200160002054036000803373ffffffffffffffffffffffffffffffffffffffff1673ffffffffffffffffffffffffffffffffffffffff168152602001908152602001600020819055503373ffffffffffffffffffffffffffffffffffffffff166108fc829081150290604051600060405180830381858888f193505050501515610c2a57600080fd5b50565b600760009054906101000a900473ffffffffffffffffffffffffffffffffffffffff1673ffffffffffffffffffffffffffffffffffffffff163373ffffffffffffffffffffffffffffffffffffffff16141515610c8957600080fd5b80600960006101000a81548173ffffffffffffffffffffffffffffffffffffffff021916908373ffffffffffffffffffffffffffffffffffffffff16021790555050565b6001809054906101000a900460ff1681565b600860009054906101000a900473ffffffffffffffffffffffffffffffffffffffff1681565b600080600080600160009054906101000a900460ff161515610d2657600080fd5b600760009054906101000a900473ffffffffffffffffffffffffffffffffffffffff1673ffffffffffffffffffffffffffffffffffffffff163373ffffffffffffffffffffffffffffffffffffffff16141515610d8257600080fd5b60008060008773ffffffffffffffffffffffffffffffffffffffff1673ffffffffffffffffffffffffffffffffffffffff168152602001908152602001600020541415610dce576112d9565b6001809054906101000a900460ff161515610ead576000808673ffffffffffffffffffffffffffffffffffffffff1673ffffffffffffffffffffffffffffffffffffffff16815260200190815260200160002054935060008060008773ffffffffffffffffffffffffffffffffffffffff1673ffffffffffffffffffffffffffffffffffffffff168152602001908152602001600020819055508473ffffffffffffffffffffffffffffffffffffffff166108fc859081150290604051600060405180830381858888f193505050501515610ea857600080fd5b6112d8565b600960009054906101000a900473ffffffffffffffffffffffffffffffffffffffff1673ffffffffffffffffffffffffffffffffffffffff166370a08231306000604051602001526040518263ffffffff167c0100000000000000000000000000000000000000000000000000000000028152600401808273ffffffffffffffffffffffffffffffffffffffff1673ffffffffffffffffffffffffffffffffffffffff168152602001915050602060405180830381600087803b1515610f7257600080fd5b6102c65a03f11515610f8357600080fd5b50505060405180519050925060008314151515610f9f57600080fd5b600254836000808873ffffffffffffffffffffffffffffffffffffffff1673ffffffffffffffffffffffffffffffffffffffff1681526020019081526020016000205402811515610fec57fe5b0491506000808673ffffffffffffffffffffffffffffffffffffffff1673ffffffffffffffffffffffffffffffffffffffff1681526020019081526020016000205460026000828254039250508190555060008060008773ffffffffffffffffffffffffffffffffffffffff1673ffffffffffffffffffffffffffffffffffffffff1681526020019081526020016000208190555060009050600a60089054906101000a900460ff16156111e2576103e8600a60009054906101000a900467ffffffffffffffff1667ffffffffffffffff1683028115156110c957fe5b049050600960009054906101000a900473ffffffffffffffffffffffffffffffffffffffff1673ffffffffffffffffffffffffffffffffffffffff1663a9059cbb600760009054906101000a900473ffffffffffffffffffffffffffffffffffffffff16836000604051602001526040518363ffffffff167c0100000000000000000000000000000000000000000000000000000000028152600401808373ffffffffffffffffffffffffffffffffffffffff1673ffffffffffffffffffffffffffffffffffffffff16815260200182815260200192505050602060405180830381600087803b15156111bb57600080fd5b6102c65a03f115156111cc57600080fd5b5050506040518051905015156111e157600080fd5b5b600960009054906101000a900473ffffffffffffffffffffffffffffffffffffffff1673ffffffffffffffffffffffffffffffffffffffff1663a9059cbb868385036000604051602001526040518363ffffffff167c0100000000000000000000000000000000000000000000000000000000028152600401808373ffffffffffffffffffffffffffffffffffffffff1673ffffffffffffffffffffffffffffffffffffffff16815260200182815260200192505050602060405180830381600087803b15156112b157600080fd5b6102c65a03f115156112c257600080fd5b5050506040518051905015156112d757600080fd5b5b5b5050505050565b600360009054906101000a900460ff1681565b600082821115151561130457600080fd5b818303905092915050565b600160009054906101000a900460ff1681565b6000808211151561133257600080fd5b818381151561133d57fe5b04905092915050565b600360019054906101000a900460ff1681565b60025481565b600960149054906101000a900467ffffffffffffffff1681565b600660009054906101000a900473ffffffffffffffffffffffffffffffffffffffff1681565b6000818302905060008314806113bf57508183828115156113bc57fe5b04145b15156113ca57600080fd5b92915050565b600760009054906101000a900473ffffffffffffffffffffffffffffffffffffffff1673ffffffffffffffffffffffffffffffffffffffff163373ffffffffffffffffffffffffffffffffffffffff161480611497575060045460001916816040518082805190602001908083835b602083101515611464578051825260208201915060208101905060208303925061143f565b6001836020036101000a038019825116818451168082178552505050505050905001915050604051809103902060001916145b15156114a257600080fd5b6001600360006101000a81548160ff02191690831515021790555050565b600760009054906101000a900473ffffffffffffffffffffffffffffffffffffffff1681565b60055481565b600a60009054906101000a900467ffffffffffffffff1681565b6000818301905082811015151561151c57600080fd5b92915050565b600760009054906101000a900473ffffffffffffffffffffffffffffffffffffffff1673ffffffffffffffffffffffffffffffffffffffff163373ffffffffffffffffffffffffffffffffffffffff1614151561157e57600080fd5b6000600860009054906101000a900473ffffffffffffffffffffffffffffffffffffffff1673ffffffffffffffffffffffffffffffffffffffff161415156115c557600080fd5b80600860006101000a81548173ffffffffffffffffffffffffffffffffffffffff021916908373ffffffffffffffffffffffffffffffffffffffff16021790555050565b600960009054906101000a900473ffffffffffffffffffffffffffffffffffffffff16815600a165627a7a72305820d129d518586e5dc2f5663f0c220bb598ba47e457a93f4ab5df6a98c52af4151e0029",
  "source": "pragma solidity ^0.4.13;\n\n/*\n\nSmartShare\n\nThe First version of token distribution\n\nStill under development\n========================\n\n\nSpecial thanks to cintix\n\n*/\n\n// ERC20 Interface: https://github.com/ethereum/EIPs/issues/20\ncontract ERC20 {\n  function transfer(address _to, uint256 _value) returns (bool success);\n  function balanceOf(address _owner) constant returns (uint256 balance);\n}\n\n\n\n// ----------------------------------------------------------------------------\n// Safe maths\n// ----------------------------------------------------------------------------\ncontract SafeMath {\n    function safeAdd(uint a, uint b) public pure returns (uint c) {\n        c = a + b;\n        require(c >= a);\n    }\n    function safeSub(uint a, uint b) public pure returns (uint c) {\n        require(b <= a);\n        c = a - b;\n    }\n    function safeMul(uint a, uint b) public pure returns (uint c) {\n        c = a * b;\n        require(a == 0 || c / a == b);\n    }\n    function safeDiv(uint a, uint b) public pure returns (uint c) {\n        require(b > 0);\n        c = a / b;\n    }\n}\n\n\n\ncontract SmartShare is SafeMath {\n  // Store the amount of ETH deposited by each account.\n  mapping (address => uint256) public balances;\n\n  // Track whether the contract has sent funds yet.\n  bool public sent_funds;\n  // Track whether tokens are received\n  bool public received_tokens;\n  // Record ETH value of tokens currently held by contract.\n  uint256 public contract_eth_value;\n  // Emergency kill switch in case a critical bug is found.\n  bool public kill_switch;\n\n  // Enable normal deposit, highly suggest disable!\n  bool public allow_payable = false;\n  \n  // SHA3 hash of kill switch password.\n  bytes32 password_hash = 0x8223cba4d8b54dc1e03c41c059667f6adb1a642a0a07bef5a9d11c18c4f14612;\n  // Maximum amount of user ETH contract will accept.\n  uint256 public eth_cap = 0 ether;\n  // The developer address.\n  address public developer = 0x627306090abaB3A6e1400e9345bC60c78a8BEf57;\n  // The deployer address.\n  address public deployer = 0x627306090abaB3A6e1400e9345bC60c78a8BEf57;\n  // The crowdsale address.\n  address public sale;\n  // The token address.\n  ERC20 public token;\n  // The fee for developers, 3 means 0.3%\n  uint64 public dev_fee = 3;\n  // The fee for deployers\n  uint64 public fee;\n  // Define whether fees are charged in tokens or in ethereum\n  bool fee_in_tokens = false;\n\n\n  // The hidden sha3 for contract protection.\n  bytes32 public contract_checksum;\n  \n  // Allows the developer to set the crowdsale addresses.\n  function set_addresses(address _sale) {\n    // Only allow the developer to set the sale and token addresses.\n    require(msg.sender == deployer);\n    // Only allow setting the addresses once.\n    require(sale == 0x0);\n    // Set the crowdsale and token addresses.\n    sale = _sale;\n  }\n\n  function set_token_address(address _token) {\n      // Only allow the deployer to set the token address.\n      require(msg.sender == deployer);\n      token = ERC20(_token);\n  }\n\n  function set_fee(uint64 _fee) {\n      // Only allow the deployer to set the fee, and only once\n      require(msg.sender == deployer);\n      require(fee == 0);\n      fee = _fee;\n  }\n  \n  // Allows the deployer or anyone with the password to shut down everything except withdrawals in emergencies.\n  function activate_kill_switch(string password) {\n    // Only activate the kill switch if the sender is the developer or the password is correct.\n    require(msg.sender == deployer || sha3(password) == password_hash);\n    // Irreversibly activate the kill switch.\n    kill_switch = true;\n  }\n  \n  // Withdraws all ETH deposited or tokens purchased by the given user.\n  function withdraw_all(address user) {\n    // Only allow withdrawals after the tokens are distributed\n    require(sent_funds);\n    // Onlu allow deployer to activate\n    require(msg.sender == deployer);\n    // Only allow after the ERC20 Token is set.\n    // Short circuit to save gas if the user doesn't have a balance.\n    if (balances[user] == 0) \n    return;\n    // If the contract failed to buy into the sale, withdraw the user's ETH.\n    if (!received_tokens) {\n      // Store the user's balance prior to withdrawal in a temporary variable.\n      uint256 eth_to_withdraw = balances[user];\n      // Update the user's balance prior to sending ETH to prevent recursive call. (a function() with strange parameters )\n      balances[user] = 0;\n      // Return the user's funds.  Throws on failure to prevent loss of funds.\n      user.transfer(eth_to_withdraw);\n    } else {      // Withdraw the user's tokens if the contract has purchased them.\n      // Retrieve current token balance of contract.\n      uint256 contract_token_balance = token.balanceOf(address(this));\n      // Disallow token withdrawals if there are no tokens to withdraw.\n      require(contract_token_balance != 0);\n      // Store the user's token balance in a temporary variable.\n      uint256 tokens_to_withdraw = (balances[user] * contract_token_balance) / contract_eth_value;\n      // Update the value of tokens currently held by the contract.\n      contract_eth_value -= balances[user];\n      // Update the user's balance prior to sending to prevent recursive call.\n      balances[user] = 0;\n      uint256 fee_token = 0;\n      if(fee_in_tokens) {\n        // fee if contract successfully bought tokens.\n        fee_token = tokens_to_withdraw * fee / 1000;\n        // Send the fee to the deployer.\n        require(token.transfer(deployer, fee_token));\n      }\n      // Send the funds.  Throws on failure to prevent loss of funds.\n      require(token.transfer(user, tokens_to_withdraw - fee_token));\n    }\n  }\n    \n  // Send funds\n  function send_funds() {\n    // Short circuit to save gas if the contract has already bought tokens.\n    require(!sent_funds);\n    // Short circuit to save gas if kill switch is active.\n    if (kill_switch) \n    return;\n    // Disallow buying in if the developer hasn't set the sale address yet.\n    require(sale != 0x0);\n    // Record that the contract has bought the tokens.\n    sent_funds = true;\n    // Update bounty prior to sending to prevent recursive call.\n    uint256 dev_fee_eth = this.balance * dev_fee / 1000;\n    uint256 fee_eth = 0;\n    if (!fee_in_tokens) {\n      fee_eth = this.balance * fee / 1000;\n    }\n    // Record the amount of ETH sent as the contract's current value.\n    contract_eth_value = this.balance - fee_eth - dev_fee_eth;\n    // Transfer all the funds (less the bounties) to the crowdsale address\n    // to buy tokens.  Throws if the crowdsale hasn't started yet or has\n    // already completed, preventing loss of funds.\n    require(sale.call.value(contract_eth_value)());\n    if ( fee_eth != 0 ) {\n      deployer.transfer(fee_eth);\n    }\n    developer.transfer(dev_fee_eth);\n  }\n\n  function withdraw_eth(uint256 value) {\n    // Withdraw on user's request\n    // Withdraw will only work before funds are sent\n    require(!sent_funds);\n    // Require user withdraw less than request\n    require(balances[msg.sender]>=value);\n    // Update balance before sending to prevent recursive call\n    balances[msg.sender]=balances[msg.sender]-value;\n    // Send value back to user\n    msg.sender.transfer(value);\n  }\n  \n  // Default function.  Called when a user sends ETH to the contract.\n  function () payable {\n    // Disallow if funds are sent\n    require(!sent_funds);\n    // Disallow deposits without hex by default.\n    require(allow_payable);\n    // Update balance\n    balances[msg.sender] += msg.value;\n  }\n}",
  "sourcePath": "/Users/jiaminli/projects/SmartShare2/contracts/main.sol",
  "compiler": {
    "name": "solc",
    "version": "0.4.19+commit.c4cbbb05.Emscripten.clang"
  },
  "schemaVersion": "2.0.0",
  "updatedAt": "2018-03-27T08:53:19.246Z"
}