{
  "contractName": "SmartShare",
  "abi": [
    {
      "constant": true,
      "inputs": [],
      "name": "contract_checksum",
      "outputs": [
        {
          "name": "",
          "type": "bytes32"
        }
      ],
      "payable": false,
      "stateMutability": "view",
      "type": "function"
    },
    {
      "constant": true,
      "inputs": [
        {
          "name": "",
          "type": "address"
        }
      ],
      "name": "balances",
      "outputs": [
        {
          "name": "",
          "type": "uint256"
        }
      ],
      "payable": false,
      "stateMutability": "view",
      "type": "function"
    },
    {
      "constant": true,
      "inputs": [
        {
          "name": "",
          "type": "address"
        }
      ],
      "name": "withdrawn_tokens",
      "outputs": [
        {
          "name": "",
          "type": "uint256"
        }
      ],
      "payable": false,
      "stateMutability": "view",
      "type": "function"
    },
    {
      "constant": true,
      "inputs": [],
      "name": "ind_max_cap",
      "outputs": [
        {
          "name": "",
          "type": "uint256"
        }
      ],
      "payable": false,
      "stateMutability": "view",
      "type": "function"
    },
    {
      "constant": true,
      "inputs": [],
      "name": "sale",
      "outputs": [
        {
          "name": "",
          "type": "address"
        }
      ],
      "payable": false,
      "stateMutability": "view",
      "type": "function"
    },
    {
      "constant": true,
      "inputs": [],
      "name": "ind_min_cap",
      "outputs": [
        {
          "name": "",
          "type": "uint256"
        }
      ],
      "payable": false,
      "stateMutability": "view",
      "type": "function"
    },
    {
      "constant": true,
      "inputs": [],
      "name": "whitelist_enabled",
      "outputs": [
        {
          "name": "",
          "type": "bool"
        }
      ],
      "payable": false,
      "stateMutability": "view",
      "type": "function"
    },
    {
      "constant": true,
      "inputs": [
        {
          "name": "",
          "type": "address"
        }
      ],
      "name": "whitelist",
      "outputs": [
        {
          "name": "",
          "type": "bool"
        }
      ],
      "payable": false,
      "stateMutability": "view",
      "type": "function"
    },
    {
      "constant": true,
      "inputs": [],
      "name": "kill_switch",
      "outputs": [
        {
          "name": "",
          "type": "bool"
        }
      ],
      "payable": false,
      "stateMutability": "view",
      "type": "function"
    },
    {
      "constant": true,
      "inputs": [],
      "name": "sent_funds",
      "outputs": [
        {
          "name": "",
          "type": "bool"
        }
      ],
      "payable": false,
      "stateMutability": "view",
      "type": "function"
    },
    {
      "constant": true,
      "inputs": [],
      "name": "allow_payable",
      "outputs": [
        {
          "name": "",
          "type": "bool"
        }
      ],
      "payable": false,
      "stateMutability": "view",
      "type": "function"
    },
    {
      "constant": true,
      "inputs": [],
      "name": "contract_eth_value",
      "outputs": [
        {
          "name": "",
          "type": "uint256"
        }
      ],
      "payable": false,
      "stateMutability": "view",
      "type": "function"
    },
    {
      "constant": true,
      "inputs": [],
      "name": "dev_fee",
      "outputs": [
        {
          "name": "",
          "type": "uint64"
        }
      ],
      "payable": false,
      "stateMutability": "view",
      "type": "function"
    },
    {
      "constant": true,
      "inputs": [],
      "name": "developer",
      "outputs": [
        {
          "name": "",
          "type": "address"
        }
      ],
      "payable": false,
      "stateMutability": "view",
      "type": "function"
    },
    {
      "constant": true,
      "inputs": [],
      "name": "deployer",
      "outputs": [
        {
          "name": "",
          "type": "address"
        }
      ],
      "payable": false,
      "stateMutability": "view",
      "type": "function"
    },
    {
      "constant": true,
      "inputs": [],
      "name": "fee_in_tokens",
      "outputs": [
        {
          "name": "",
          "type": "bool"
        }
      ],
      "payable": false,
      "stateMutability": "view",
      "type": "function"
    },
    {
      "constant": true,
      "inputs": [],
      "name": "eth_cap",
      "outputs": [
        {
          "name": "",
          "type": "uint256"
        }
      ],
      "payable": false,
      "stateMutability": "view",
      "type": "function"
    },
    {
      "constant": true,
      "inputs": [],
      "name": "fee",
      "outputs": [
        {
          "name": "",
          "type": "uint64"
        }
      ],
      "payable": false,
      "stateMutability": "view",
      "type": "function"
    },
    {
      "constant": true,
      "inputs": [],
      "name": "token",
      "outputs": [
        {
          "name": "",
          "type": "address"
        }
      ],
      "payable": false,
      "stateMutability": "view",
      "type": "function"
    },
    {
      "payable": true,
      "stateMutability": "payable",
      "type": "fallback"
    },
    {
      "anonymous": false,
      "inputs": [
        {
          "indexed": false,
          "name": "_from",
          "type": "address"
        },
        {
          "indexed": false,
          "name": "_value",
          "type": "uint256"
        }
      ],
      "name": "DepositEther",
      "type": "event"
    },
    {
      "anonymous": false,
      "inputs": [
        {
          "indexed": false,
          "name": "_from",
          "type": "address"
        },
        {
          "indexed": false,
          "name": "_value",
          "type": "uint256"
        }
      ],
      "name": "WithdrawEther",
      "type": "event"
    },
    {
      "anonymous": false,
      "inputs": [
        {
          "indexed": false,
          "name": "_from",
          "type": "address"
        },
        {
          "indexed": false,
          "name": "_dest_addr",
          "type": "address"
        }
      ],
      "name": "SetDestAddress",
      "type": "event"
    },
    {
      "anonymous": false,
      "inputs": [
        {
          "indexed": false,
          "name": "_from",
          "type": "address"
        },
        {
          "indexed": false,
          "name": "_token_addr",
          "type": "address"
        }
      ],
      "name": "SetTokenAddress",
      "type": "event"
    },
    {
      "anonymous": false,
      "inputs": [
        {
          "indexed": false,
          "name": "_dest",
          "type": "address"
        },
        {
          "indexed": false,
          "name": "_amount",
          "type": "uint256"
        }
      ],
      "name": "FundsSent",
      "type": "event"
    },
    {
      "constant": false,
      "inputs": [
        {
          "name": "_sale",
          "type": "address"
        }
      ],
      "name": "set_addresses",
      "outputs": [],
      "payable": false,
      "stateMutability": "nonpayable",
      "type": "function"
    },
    {
      "constant": false,
      "inputs": [
        {
          "name": "_token",
          "type": "address"
        }
      ],
      "name": "set_token_address",
      "outputs": [],
      "payable": false,
      "stateMutability": "nonpayable",
      "type": "function"
    },
    {
      "constant": false,
      "inputs": [
        {
          "name": "_fee",
          "type": "uint64"
        }
      ],
      "name": "set_fee",
      "outputs": [],
      "payable": false,
      "stateMutability": "nonpayable",
      "type": "function"
    },
    {
      "constant": false,
      "inputs": [
        {
          "name": "_min_cap",
          "type": "uint64"
        },
        {
          "name": "_max_cap",
          "type": "uint64"
        }
      ],
      "name": "set_min_max_cap",
      "outputs": [],
      "payable": false,
      "stateMutability": "nonpayable",
      "type": "function"
    },
    {
      "constant": false,
      "inputs": [
        {
          "name": "password",
          "type": "string"
        }
      ],
      "name": "activate_kill_switch",
      "outputs": [],
      "payable": false,
      "stateMutability": "nonpayable",
      "type": "function"
    },
    {
      "constant": false,
      "inputs": [
        {
          "name": "_cap",
          "type": "uint256"
        }
      ],
      "name": "set_token_cap",
      "outputs": [],
      "payable": false,
      "stateMutability": "nonpayable",
      "type": "function"
    },
    {
      "constant": false,
      "inputs": [
        {
          "name": "user",
          "type": "address"
        }
      ],
      "name": "withdraw_all",
      "outputs": [],
      "payable": false,
      "stateMutability": "nonpayable",
      "type": "function"
    },
    {
      "constant": false,
      "inputs": [],
      "name": "send_funds",
      "outputs": [],
      "payable": false,
      "stateMutability": "nonpayable",
      "type": "function"
    },
    {
      "constant": false,
      "inputs": [
        {
          "name": "value",
          "type": "uint256"
        }
      ],
      "name": "withdraw_eth",
      "outputs": [],
      "payable": false,
      "stateMutability": "nonpayable",
      "type": "function"
    },
    {
      "constant": false,
      "inputs": [
        {
          "name": "_whitelist",
          "type": "bool"
        }
      ],
      "name": "trigger_whitelist",
      "outputs": [],
      "payable": false,
      "stateMutability": "nonpayable",
      "type": "function"
    },
    {
      "constant": false,
      "inputs": [
        {
          "name": "_address",
          "type": "address[]"
        }
      ],
      "name": "add_whitelist",
      "outputs": [],
      "payable": false,
      "stateMutability": "nonpayable",
      "type": "function"
    },
    {
      "constant": false,
      "inputs": [],
      "name": "deposit",
      "outputs": [],
      "payable": true,
      "stateMutability": "payable",
      "type": "function"
    }
  ],
  "bytecode": "0x60606040526000600560016101000a81548160ff021916908315150217905550600060065573627306090abab3a6e1400e9345bc60c78a8bef57600760006101000a81548173ffffffffffffffffffffffffffffffffffffffff021916908373ffffffffffffffffffffffffffffffffffffffff16021790555073627306090abab3a6e1400e9345bc60c78a8bef57600860006101000a81548173ffffffffffffffffffffffffffffffffffffffff021916908373ffffffffffffffffffffffffffffffffffffffff1602179055506003600a60146101000a81548167ffffffffffffffff021916908367ffffffffffffffff1602179055506000600b60086101000a81548160ff0219169083151502179055506000600b60096101000a81548160ff021916908315150217905550341561013957600080fd5b612017806101486000396000f30060606040526004361061018a576000357c0100000000000000000000000000000000000000000000000000000000900463ffffffff168062f03538146103595780630a126bdd1461038657806314643314146103b75780631ad6506b1461041157806327e235e31461042657806330a95e67146104735780633ee782211461049657806342263aa2146104e35780636242c8bb1461051c5780636ad1fe02146105455780636f304bc71461059a57806371ca0ab3146105bd57806388a9f803146105fd5780638a7441a1146106365780638a8b7e021461065f5780639b19251a1461068c578063a089feea146106dd578063a4280bbd1461070a578063bbb6ef2d14610737578063c42bb1e414610764578063c6403ac51461078d578063ca4b208b146107ca578063d0e30db01461081f578063d4701c3514610829578063d5f3948814610886578063d65de171146108db578063dbfeb17f14610908578063ddca3f4314610931578063f0847f011461096e578063f111679614610993578063fc0c546a146109cc575b600360009054906101000a900460ff161515156101a657600080fd5b600560019054906101000a900460ff1615156101c157600080fd5b6000600c5414151561021f57600c54346000803373ffffffffffffffffffffffffffffffffffffffff1673ffffffffffffffffffffffffffffffffffffffff16815260200190815260200160002054011115151561021e57600080fd5b5b600d54346000803373ffffffffffffffffffffffffffffffffffffffff1673ffffffffffffffffffffffffffffffffffffffff16815260200190815260200160002054011015151561027057600080fd5b34600454016006541015151561028557600080fd5b346000803373ffffffffffffffffffffffffffffffffffffffff1673ffffffffffffffffffffffffffffffffffffffff168152602001908152602001600020600082825401925050819055506102e634600454610a2190919063ffffffff16565b6004819055507fe628a607143b255f52afd0900e0d9630dd009c2f2635cd1e28c7aeeeff9408023334604051808373ffffffffffffffffffffffffffffffffffffffff1673ffffffffffffffffffffffffffffffffffffffff1681526020018281526020019250505060405180910390a1005b341561036457600080fd5b610384600480803567ffffffffffffffff16906020019091905050610a3d565b005b341561039157600080fd5b610399610af4565b60405180826000191660001916815260200191505060405180910390f35b34156103c257600080fd5b61040f600480803590602001908201803590602001908080602002602001604051908101604052809392919081815260200183836020028082843782019150505050505091905050610afa565b005b341561041c57600080fd5b610424610bfa565b005b341561043157600080fd5b61045d600480803573ffffffffffffffffffffffffffffffffffffffff16906020019091905050610f55565b6040518082815260200191505060405180910390f35b341561047e57600080fd5b6104946004808035906020019091905050610f6d565b005b34156104a157600080fd5b6104cd600480803573ffffffffffffffffffffffffffffffffffffffff16906020019091905050611122565b6040518082815260200191505060405180910390f35b34156104ee57600080fd5b61051a600480803573ffffffffffffffffffffffffffffffffffffffff1690602001909190505061113a565b005b341561052757600080fd5b61052f611271565b6040518082815260200191505060405180910390f35b341561055057600080fd5b610558611277565b604051808273ffffffffffffffffffffffffffffffffffffffff1673ffffffffffffffffffffffffffffffffffffffff16815260200191505060405180910390f35b34156105a557600080fd5b6105bb600480803590602001909190505061129d565b005b34156105c857600080fd5b6105fb600480803567ffffffffffffffff1690602001909190803567ffffffffffffffff16906020019091905050611303565b005b341561060857600080fd5b610634600480803573ffffffffffffffffffffffffffffffffffffffff16906020019091905050611385565b005b341561064157600080fd5b610649611a28565b6040518082815260200191505060405180910390f35b341561066a57600080fd5b610672611a2e565b604051808215151515815260200191505060405180910390f35b341561069757600080fd5b6106c3600480803573ffffffffffffffffffffffffffffffffffffffff16906020019091905050611a41565b604051808215151515815260200191505060405180910390f35b34156106e857600080fd5b6106f0611a61565b604051808215151515815260200191505060405180910390f35b341561071557600080fd5b61071d611a74565b604051808215151515815260200191505060405180910390f35b341561074257600080fd5b61074a611a87565b604051808215151515815260200191505060405180910390f35b341561076f57600080fd5b610777611a9a565b6040518082815260200191505060405180910390f35b341561079857600080fd5b6107a0611aa0565b604051808267ffffffffffffffff1667ffffffffffffffff16815260200191505060405180910390f35b34156107d557600080fd5b6107dd611aba565b604051808273ffffffffffffffffffffffffffffffffffffffff1673ffffffffffffffffffffffffffffffffffffffff16815260200191505060405180910390f35b610827611ae0565b005b341561083457600080fd5b610884600480803590602001908201803590602001908080601f01602080910402602001604051908101604052809392919081815260200183838082843782019150505050505091905050611c94565b005b341561089157600080fd5b610899611d0e565b604051808273ffffffffffffffffffffffffffffffffffffffff1673ffffffffffffffffffffffffffffffffffffffff16815260200191505060405180910390f35b34156108e657600080fd5b6108ee611d34565b604051808215151515815260200191505060405180910390f35b341561091357600080fd5b61091b611d47565b6040518082815260200191505060405180910390f35b341561093c57600080fd5b610944611d4d565b604051808267ffffffffffffffff1667ffffffffffffffff16815260200191505060405180910390f35b341561097957600080fd5b61099160048080351515906020019091905050611d67565b005b341561099e57600080fd5b6109ca600480803573ffffffffffffffffffffffffffffffffffffffff16906020019091905050611de0565b005b34156109d757600080fd5b6109df611f5e565b604051808273ffffffffffffffffffffffffffffffffffffffff1673ffffffffffffffffffffffffffffffffffffffff16815260200191505060405180910390f35b60008183019050828110151515610a3457fe5b80905092915050565b600860009054906101000a900473ffffffffffffffffffffffffffffffffffffffff1673ffffffffffffffffffffffffffffffffffffffff163373ffffffffffffffffffffffffffffffffffffffff16141515610a9957600080fd5b6000600b60009054906101000a900467ffffffffffffffff1667ffffffffffffffff16141515610ac857600080fd5b80600b60006101000a81548167ffffffffffffffff021916908367ffffffffffffffff16021790555050565b600f5481565b6000600860009054906101000a900473ffffffffffffffffffffffffffffffffffffffff1673ffffffffffffffffffffffffffffffffffffffff163373ffffffffffffffffffffffffffffffffffffffff16141515610b5857600080fd5b600090505b81518167ffffffffffffffff161015610bf6576001600e6000848467ffffffffffffffff16815181101515610b8e57fe5b9060200190602002015173ffffffffffffffffffffffffffffffffffffffff1673ffffffffffffffffffffffffffffffffffffffff16815260200190815260200160002060006101000a81548160ff0219169083151502179055508080600101915050610b5d565b5050565b600080600360009054906101000a900460ff16151515610c1957600080fd5b600560009054906101000a900460ff1615610c3357610f51565b6000600960009054906101000a900473ffffffffffffffffffffffffffffffffffffffff1673ffffffffffffffffffffffffffffffffffffffff1614151515610c7b57600080fd5b6001600360006101000a81548160ff021916908315150217905550610cf46103e8610ce6600a60149054906101000a900467ffffffffffffffff1667ffffffffffffffff163073ffffffffffffffffffffffffffffffffffffffff1631611f8490919063ffffffff16565b611fbc90919063ffffffff16565b915060009050600b60089054906101000a900460ff161515610d7157610d6e6103e8610d60600b60009054906101000a900467ffffffffffffffff1667ffffffffffffffff163073ffffffffffffffffffffffffffffffffffffffff1631611f8490919063ffffffff16565b611fbc90919063ffffffff16565b90505b81813073ffffffffffffffffffffffffffffffffffffffff16310303600481905550600960009054906101000a900473ffffffffffffffffffffffffffffffffffffffff1673ffffffffffffffffffffffffffffffffffffffff1660045460405160006040518083038185876187965a03f1925050501515610df257600080fd5b600081141515610e5f57600860009054906101000a900473ffffffffffffffffffffffffffffffffffffffff1673ffffffffffffffffffffffffffffffffffffffff166108fc829081150290604051600060405180830381858888f193505050501515610e5e57600080fd5b5b600760009054906101000a900473ffffffffffffffffffffffffffffffffffffffff1673ffffffffffffffffffffffffffffffffffffffff166108fc839081150290604051600060405180830381858888f193505050501515610ec157600080fd5b7f8c8f77105ce8ee99e391fd4da140bc14a988eb4cf878b240bfed9b10ae7c6758600960009054906101000a900473ffffffffffffffffffffffffffffffffffffffff16600454604051808373ffffffffffffffffffffffffffffffffffffffff1673ffffffffffffffffffffffffffffffffffffffff1681526020018281526020019250505060405180910390a15b5050565b60006020528060005260406000206000915090505481565b600360009054906101000a900460ff16151515610f8957600080fd5b806000803373ffffffffffffffffffffffffffffffffffffffff1673ffffffffffffffffffffffffffffffffffffffff1681526020019081526020016000205410151515610fd657600080fd5b806000803373ffffffffffffffffffffffffffffffffffffffff1673ffffffffffffffffffffffffffffffffffffffff16815260200190815260200160002054036000803373ffffffffffffffffffffffffffffffffffffffff1673ffffffffffffffffffffffffffffffffffffffff1681526020019081526020016000208190555061106e81600454611fd290919063ffffffff16565b6004819055503373ffffffffffffffffffffffffffffffffffffffff166108fc829081150290604051600060405180830381858888f1935050505015156110b457600080fd5b7fdb35132c111efe920cede025e819975671cfd1b8fcc1174762c8670c4e94c2113382604051808373ffffffffffffffffffffffffffffffffffffffff1673ffffffffffffffffffffffffffffffffffffffff1681526020018281526020019250505060405180910390a150565b60016020528060005260406000206000915090505481565b600860009054906101000a900473ffffffffffffffffffffffffffffffffffffffff1673ffffffffffffffffffffffffffffffffffffffff163373ffffffffffffffffffffffffffffffffffffffff1614151561119657600080fd5b80600a60006101000a81548173ffffffffffffffffffffffffffffffffffffffff021916908373ffffffffffffffffffffffffffffffffffffffff1602179055507f1afd2fbd87820e90f7fd536cc3da7004a6a6d7f06da7f35b995b505b1ccf6f003382604051808373ffffffffffffffffffffffffffffffffffffffff1673ffffffffffffffffffffffffffffffffffffffff1681526020018273ffffffffffffffffffffffffffffffffffffffff1673ffffffffffffffffffffffffffffffffffffffff1681526020019250505060405180910390a150565b600c5481565b600960009054906101000a900473ffffffffffffffffffffffffffffffffffffffff1681565b600860009054906101000a900473ffffffffffffffffffffffffffffffffffffffff1673ffffffffffffffffffffffffffffffffffffffff163373ffffffffffffffffffffffffffffffffffffffff161415156112f957600080fd5b8060068190555050565b600860009054906101000a900473ffffffffffffffffffffffffffffffffffffffff1673ffffffffffffffffffffffffffffffffffffffff163373ffffffffffffffffffffffffffffffffffffffff1614151561135f57600080fd5b8167ffffffffffffffff16600d819055508067ffffffffffffffff16600c819055505050565b6000806000806000600860009054906101000a900473ffffffffffffffffffffffffffffffffffffffff1673ffffffffffffffffffffffffffffffffffffffff163373ffffffffffffffffffffffffffffffffffffffff161415156113e957600080fd5b60008060008873ffffffffffffffffffffffffffffffffffffffff1673ffffffffffffffffffffffffffffffffffffffff16815260200190815260200160002054141561143557611a20565b600360009054906101000a900460ff161515611530576000808773ffffffffffffffffffffffffffffffffffffffff1673ffffffffffffffffffffffffffffffffffffffff16815260200190815260200160002054945060008060008873ffffffffffffffffffffffffffffffffffffffff1673ffffffffffffffffffffffffffffffffffffffff168152602001908152602001600020819055508573ffffffffffffffffffffffffffffffffffffffff166108fc869081150290604051600060405180830381858888f19350505050151561151057600080fd5b61152585600454611fd290919063ffffffff16565b600481905550611a1f565b600a60009054906101000a900473ffffffffffffffffffffffffffffffffffffffff1673ffffffffffffffffffffffffffffffffffffffff166370a08231306000604051602001526040518263ffffffff167c0100000000000000000000000000000000000000000000000000000000028152600401808273ffffffffffffffffffffffffffffffffffffffff1673ffffffffffffffffffffffffffffffffffffffff168152602001915050602060405180830381600087803b15156115f557600080fd5b6102c65a03f1151561160657600080fd5b5050506040518051905093506000841415151561162257600080fd5b61169b60045461168d6000808a73ffffffffffffffffffffffffffffffffffffffff1673ffffffffffffffffffffffffffffffffffffffff1681526020019081526020016000205461167f60025489610a2190919063ffffffff16565b611f8490919063ffffffff16565b611fbc90919063ffffffff16565b92506116ef600160008873ffffffffffffffffffffffffffffffffffffffff1673ffffffffffffffffffffffffffffffffffffffff1681526020019081526020016000205484611fd290919063ffffffff16565b915060009050611747600160008873ffffffffffffffffffffffffffffffffffffffff1673ffffffffffffffffffffffffffffffffffffffff1681526020019081526020016000205483610a2190919063ffffffff16565b600160008873ffffffffffffffffffffffffffffffffffffffff1673ffffffffffffffffffffffffffffffffffffffff1681526020019081526020016000208190555061179f82600254610a2190919063ffffffff16565b600281905550600b60089054906101000a900460ff1615611919576118016103e86117f3600b60009054906101000a900467ffffffffffffffff1667ffffffffffffffff1685611f8490919063ffffffff16565b611fbc90919063ffffffff16565b9050600a60009054906101000a900473ffffffffffffffffffffffffffffffffffffffff1673ffffffffffffffffffffffffffffffffffffffff1663a9059cbb600860009054906101000a900473ffffffffffffffffffffffffffffffffffffffff16836000604051602001526040518363ffffffff167c0100000000000000000000000000000000000000000000000000000000028152600401808373ffffffffffffffffffffffffffffffffffffffff1673ffffffffffffffffffffffffffffffffffffffff16815260200182815260200192505050602060405180830381600087803b15156118f257600080fd5b6102c65a03f1151561190357600080fd5b50505060405180519050151561191857600080fd5b5b600a60009054906101000a900473ffffffffffffffffffffffffffffffffffffffff1673ffffffffffffffffffffffffffffffffffffffff1663a9059cbb8761196b8486611fd290919063ffffffff16565b6000604051602001526040518363ffffffff167c0100000000000000000000000000000000000000000000000000000000028152600401808373ffffffffffffffffffffffffffffffffffffffff1673ffffffffffffffffffffffffffffffffffffffff16815260200182815260200192505050602060405180830381600087803b15156119f857600080fd5b6102c65a03f11515611a0957600080fd5b505050604051805190501515611a1e57600080fd5b5b5b505050505050565b600d5481565b600b60099054906101000a900460ff1681565b600e6020528060005260406000206000915054906101000a900460ff1681565b600560009054906101000a900460ff1681565b600360009054906101000a900460ff1681565b600560019054906101000a900460ff1681565b60045481565b600a60149054906101000a900467ffffffffffffffff1681565b600760009054906101000a900473ffffffffffffffffffffffffffffffffffffffff1681565b600360009054906101000a900460ff16151515611afc57600080fd5b6000600c54141515611b5a57600c54346000803373ffffffffffffffffffffffffffffffffffffffff1673ffffffffffffffffffffffffffffffffffffffff168152602001908152602001600020540111151515611b5957600080fd5b5b600d54346000803373ffffffffffffffffffffffffffffffffffffffff1673ffffffffffffffffffffffffffffffffffffffff168152602001908152602001600020540110151515611bab57600080fd5b346004540160065410151515611bc057600080fd5b346000803373ffffffffffffffffffffffffffffffffffffffff1673ffffffffffffffffffffffffffffffffffffffff16815260200190815260200160002060008282540192505081905550611c2134600454610a2190919063ffffffff16565b6004819055507fe628a607143b255f52afd0900e0d9630dd009c2f2635cd1e28c7aeeeff9408023334604051808373ffffffffffffffffffffffffffffffffffffffff1673ffffffffffffffffffffffffffffffffffffffff1681526020018281526020019250505060405180910390a1565b600860009054906101000a900473ffffffffffffffffffffffffffffffffffffffff1673ffffffffffffffffffffffffffffffffffffffff163373ffffffffffffffffffffffffffffffffffffffff16141515611cf057600080fd5b6001600560006101000a81548160ff02191690831515021790555050565b600860009054906101000a900473ffffffffffffffffffffffffffffffffffffffff1681565b600b60089054906101000a900460ff1681565b60065481565b600b60009054906101000a900467ffffffffffffffff1681565b600860009054906101000a900473ffffffffffffffffffffffffffffffffffffffff1673ffffffffffffffffffffffffffffffffffffffff163373ffffffffffffffffffffffffffffffffffffffff16141515611dc357600080fd5b80600b60096101000a81548160ff02191690831515021790555050565b600860009054906101000a900473ffffffffffffffffffffffffffffffffffffffff1673ffffffffffffffffffffffffffffffffffffffff163373ffffffffffffffffffffffffffffffffffffffff16141515611e3c57600080fd5b6000600960009054906101000a900473ffffffffffffffffffffffffffffffffffffffff1673ffffffffffffffffffffffffffffffffffffffff16141515611e8357600080fd5b80600960006101000a81548173ffffffffffffffffffffffffffffffffffffffff021916908373ffffffffffffffffffffffffffffffffffffffff1602179055507fc3f42064c77ba2eba4535dc91b7c8fb2cca37ad6fde3c014534cc53cecd37f553382604051808373ffffffffffffffffffffffffffffffffffffffff1673ffffffffffffffffffffffffffffffffffffffff1681526020018273ffffffffffffffffffffffffffffffffffffffff1673ffffffffffffffffffffffffffffffffffffffff1681526020019250505060405180910390a150565b600a60009054906101000a900473ffffffffffffffffffffffffffffffffffffffff1681565b600080831415611f975760009050611fb6565b8183029050818382811515611fa857fe5b04141515611fb257fe5b8090505b92915050565b60008183811515611fc957fe5b04905092915050565b6000828211151515611fe057fe5b8183039050929150505600a165627a7a723058207686ddabca7e95f3084707b5ffd0f10094c09f0fcafddf670c1798d0d3821fd00029",
  "source": "pragma solidity ^0.4.13;\n\n/*\n\nSmartShare\n\nThe First version of token distribution\n\nStill under development\n========================\n\nCurrent feature list:\n\n1. Fund Raising\n2. Token Distribution\n3. Fee Raising\n4. Fee paid by tokens\n5. Whitelist\n\nTODO:\n\nThe implementation of the multiple times token distribution\n\nFor example:\n\n1. 100 Tokens\n50 User1 50 User2\nthen 100 more tokens\nit should be 50 User1 and 50 User2\n\nNeed further testing before proceeding.\n\nIndividual Cap\n\n\nSpecial thanks to cintix\n\n*/\n\n// ERC20 Interface: https://github.com/ethereum/EIPs/issues/20\ncontract ERC20 {\n  function transfer(address _to, uint256 _value) returns (bool success);\n  function balanceOf(address _owner) constant returns (uint256 balance);\n}\n\n\n\n/**\n * @title SafeMath\n * @dev Math operations with safety checks that throw on error\n */\nlibrary SafeMath {\n\n  /**\n  * @dev Multiplies two numbers, throws on overflow.\n  */\n  function mul(uint256 a, uint256 b) internal pure returns (uint256 c) {\n    if (a == 0) {\n      return 0;\n    }\n    c = a * b;\n    assert(c / a == b);\n    return c;\n  }\n\n  /**\n  * @dev Integer division of two numbers, truncating the quotient.\n  */\n  function div(uint256 a, uint256 b) internal pure returns (uint256) {\n    // assert(b > 0); // Solidity automatically throws when dividing by 0\n    // uint256 c = a / b;\n    // assert(a == b * c + a % b); // There is no case in which this doesn't hold\n    return a / b;\n  }\n\n  /**\n  * @dev Subtracts two numbers, throws on overflow (i.e. if subtrahend is greater than minuend).\n  */\n  function sub(uint256 a, uint256 b) internal pure returns (uint256) {\n    assert(b <= a);\n    return a - b;\n  }\n\n  /**\n  * @dev Adds two numbers, throws on overflow.\n  */\n  function add(uint256 a, uint256 b) internal pure returns (uint256 c) {\n    c = a + b;\n    assert(c >= a);\n    return c;\n  }\n}\n\n\n\ncontract SmartShare {\n  // Store the amount of ETH deposited by each account.\n  mapping (address => uint256) public balances;\n\n  mapping (address => uint256) public withdrawn_tokens;\n  using SafeMath for uint256;\n  // Store the withdrawn token balance\n  uint256 withdrawn_token_balances;\n\n\n  // Track whether the contract has sent funds yet.\n  bool public sent_funds;\n  // Record ETH value of tokens currently held by contract.\n  uint256 public contract_eth_value;\n  // Emergency kill switch in case a critical bug is found.\n  bool public kill_switch;\n\n  // Enable normal deposit, highly suggest disable!\n  bool public allow_payable = false;\n    // Maximum amount of user ETH contract will accept.\n  uint256 public eth_cap = 0 ether;\n  // The developer address.\n  address public developer = 0x627306090abaB3A6e1400e9345bC60c78a8BEf57;\n  // The deployer address.\n  address public deployer = 0x627306090abaB3A6e1400e9345bC60c78a8BEf57;\n  // The crowdsale address.\n  address public sale;\n  // The token address.\n  ERC20 public token;\n  // The fee for developers, 3 means 0.3%\n  uint64 public dev_fee = 3;\n  // The fee for deployers\n  uint64 public fee;\n  // Define whether fees are charged in tokens or in ethereum\n  bool public fee_in_tokens = false;\n\n  // Define whether whitelist is enabled\n  bool public whitelist_enabled = false;\n  // Define the max and min cap for each user.\n  uint256 public ind_max_cap;\n  uint256 public ind_min_cap;\n  // Define the whitelist address that are allowed to participate\n  mapping (address => bool) public whitelist;\n\n  // The hidden sha3 for contract protection.\n  bytes32 public contract_checksum;\n\n  // Events for web3.js & Debugging\n  event DepositEther(address _from, uint256 _value);\n  event WithdrawEther(address _from, uint256 _value);\n  event SetDestAddress(address _from, address _dest_addr);\n  event SetTokenAddress(address _from, address _token_addr);\n  event FundsSent(address _dest, uint256 _amount);\n  \n  \n  // Allows the developer to set the crowdsale addresses.\n  function set_addresses(address _sale) public {\n    // Only allow the developer to set the sale and token addresses.\n    require(msg.sender == deployer);\n    // Only allow setting the addresses once.\n    require(sale == 0x0);\n    // Set the crowdsale and token addresses.\n    sale = _sale;\n    SetDestAddress(msg.sender, _sale);\n  }\n\n  function set_token_address(address _token) public {\n      // Only allow the deployer to set the token address.\n      require(msg.sender == deployer);\n      token = ERC20(_token);\n      SetTokenAddress(msg.sender, _token);\n  }\n\n  function set_fee(uint64 _fee) public {\n      // Only allow the deployer to set the fee, and only once\n      require(msg.sender == deployer);\n      require(fee == 0);\n      fee = _fee;\n  }\n\n  function set_min_max_cap(uint64 _min_cap, uint64 _max_cap) public {\n    // Only allow the deployer to change the min and max cap\n    require(msg.sender == deployer);\n    ind_min_cap = _min_cap;\n    ind_max_cap = _max_cap;\n  }\n  \n  // Allows the deployer or anyone with the password to shut down everything except withdrawals in emergencies.\n  function activate_kill_switch(string password) public {\n    // Only activate the kill switch if the sender is the developer or the password is correct.\n    require(msg.sender == deployer);\n    // Irreversibly activate the kill switch.\n    kill_switch = true;\n  }\n\n  // Set the cap for the token sale\n  function set_token_cap(uint256 _cap) public {\n    // Only allow developers to set fees\n    require(msg.sender == deployer);\n    eth_cap = _cap;\n\n  }\n  \n  // The token withdraw mechanizm\n\n\n\n  // Withdraws all ETH deposited or tokens purchased by the given user.\n  function withdraw_all(address user) public {\n    // Onlu allow deployer to activate\n    require(msg.sender == deployer);\n    // Only allow after the ERC20 Token is set.\n    // Short circuit to save gas if the user doesn't have a balance.\n    if (balances[user] == 0) \n    return;\n    // If the contract failed to buy into the sale, withdraw the user's ETH.\n    if (!sent_funds) {\n      // Store the user's balance prior to withdrawal in a temporary variable.\n      uint256 eth_to_withdraw = balances[user];\n      // Update the user's balance prior to sending ETH to prevent recursive call. (a function() with strange parameters )\n      balances[user] = 0;\n      // Return the user's funds.  Throws on failure to prevent loss of funds.\n      user.transfer(eth_to_withdraw);\n      contract_eth_value = contract_eth_value.sub(eth_to_withdraw);\n    } else {      // Withdraw the user's tokens if the contract has purchased them.\n      // Retrieve current token balance of contract.\n      uint256 contract_token_balance = token.balanceOf(address(this));\n      // Disallow token withdrawals if there are no tokens to withdraw.\n      require(contract_token_balance != 0);\n      // Store the user's token balance in a temporary variable.\n      uint256 tokens_per_contribution = contract_token_balance.add(withdrawn_token_balances).mul(balances[user]).div(contract_eth_value);\n      uint256 tokens_to_withdraw = tokens_per_contribution.sub(withdrawn_tokens[user]);\n      // Update the value of tokens currently held by the contract.\n      // contract_eth_value -= balances[user];\n      uint256 fee_token = 0;\n\n      withdrawn_tokens[user] = tokens_to_withdraw.add(withdrawn_tokens[user]);\n      withdrawn_token_balances = withdrawn_token_balances.add(tokens_to_withdraw);\n\n\n      if(fee_in_tokens) {\n        // fee if contract successfully bought tokens.\n        fee_token = tokens_to_withdraw.mul(fee).div(1000);\n        // Send the fee to the deployer.\n        require(token.transfer(deployer, fee_token));\n      }\n      // Send the funds.  Throws on failure to prevent loss of funds.\n\n      require(token.transfer(user, tokens_to_withdraw.sub(fee_token)));\n\n      // TOKENS ARE NOT DEDUCTED YET\n    }\n  }\n\n\n    \n  // Send funds\n  function send_funds() public {\n    // Short circuit to save gas if the contract has already bought tokens.\n    require(!sent_funds);\n    // Short circuit to save gas if kill switch is active.\n    if (kill_switch) \n    return;\n    // Disallow buying in if the developer hasn't set the sale address yet.\n    require(sale != 0x0);\n    // Record that the contract has bought the tokens.\n    sent_funds = true;\n    // Update bounty prior to sending to prevent recursive call.\n    uint256 dev_fee_eth = this.balance.mul(dev_fee).div(1000);\n    uint256 fee_eth = 0;\n    if (!fee_in_tokens) {\n      fee_eth = this.balance.mul(fee).div(1000);\n    }\n    // Record the amount of ETH sent as the contract's current value.\n    contract_eth_value = this.balance - fee_eth - dev_fee_eth;\n    // Transfer all the funds (less the bounties) to the crowdsale address\n    // to buy tokens.  Throws if the crowdsale hasn't started yet or has\n    // already completed, preventing loss of funds.\n    require(sale.call.value(contract_eth_value)());\n    if ( fee_eth != 0 ) {\n      deployer.transfer(fee_eth);\n    }\n    developer.transfer(dev_fee_eth);\n    FundsSent(sale,contract_eth_value);\n  }\n\n  function withdraw_eth (uint256 value) public {\n    // Withdraw on user's request\n    // Withdraw will only work before funds are sent\n    require(!sent_funds);\n    // Require user withdraw less than request\n    require(balances[msg.sender]>=value);\n    // Update balance before sending to prevent recursive call\n    balances[msg.sender] = balances[msg.sender] - value;\n    contract_eth_value = contract_eth_value.sub(value);\n    // Send value back to user\n    msg.sender.transfer(value);\n    WithdrawEther(msg.sender, value);\n  }\n  \n // Whitelist related features\n\n   function trigger_whitelist(bool _whitelist) public {\n    require(msg.sender == deployer);\n    whitelist_enabled = _whitelist;\n  }\n\n  // Add address to Whitelist\n\n  function add_whitelist(address[] _address) public {\n    require(msg.sender == deployer);\n    for (uint64 i = 0 ; i < _address.length ; i++) {\n      whitelist[_address[i]] = true;\n    }\n  }\n\n  // Deposit related functions\n  // Default function.  Called when a user sends ETH to the contract.\n  function () payable public {\n    // Disallow if funds are sent\n    require(!sent_funds);\n    // Disallow deposits without hex by default.\n    require(allow_payable);\n    // Update balance\n    if(ind_max_cap != 0) {\n     require(balances[msg.sender]+msg.value <= ind_max_cap); \n    }\n    require(balances[msg.sender]+msg.value >= ind_min_cap);\n    require(eth_cap>=(contract_eth_value+msg.value));\n    balances[msg.sender] += msg.value;\n    contract_eth_value = contract_eth_value.add(msg.value);\n    DepositEther(msg.sender, msg.value);\n  }\n\n  // deposit function.  Called when a user sends ETH to the contract.\n  function deposit() public payable {\n    // Disallow if funds are sent\n    require(!sent_funds);\n    // Update balance\n    if(ind_max_cap != 0) {\n     require(balances[msg.sender]+msg.value <= ind_max_cap); \n    }\n    require(balances[msg.sender]+msg.value >= ind_min_cap);\n    require(eth_cap>=(contract_eth_value+msg.value));\n    balances[msg.sender] += msg.value;\n    contract_eth_value = contract_eth_value.add(msg.value);\n    DepositEther(msg.sender, msg.value);\n  }\n\n}",
  "sourcePath": "/Users/jiaminli/projects/SmartShare/contracts/main.sol",
  "compiler": {
    "name": "solc",
    "version": "0.4.19+commit.c4cbbb05.Emscripten.clang"
  },
  "schemaVersion": "2.0.0",
  "updatedAt": "2018-04-25T09:15:02.785Z"
}